:100000000C9400060C9447060C9447060C94470683
:100010000C9447060C9447060C9447060C9447062C
:100020000C9447060C9447060C946C280C943E29BB
:100030000C94981A0C9447060C9447060C944706A7
:100040000C9447060C9447060C9447060C944706FC
:100050000C9447060C940C1B0C9447060C94470612
:100060000C9447060C9447060C9447060C944706DC
:100070000C9447060C9447060C9447060C944706CC
:100080000C9447060C9447060C9447060C944706BC
:100090000C9447060C9447060C9447060C944706AC
:1000A0000C9447060C9447060C944706AC07AE0721
:1000B000B907B007B207B407B607B807BB07BD0753
:1000C000BF07CA07C107C307C507C707C907CC07CA
:1000D0006510651097109710D510F3104F124F123E
:1000E00035114F12CE11CE113F124F124F1248123E
:1000F000DB11DB11DB11DB11DB11DB11DB11DB11A0
:10010000DB11DB11DB11DB11DB11DB11DB11DB118F
:10011000EC11FA11011208121212E012E012F2129E
:10012000F212E912F212F212F212E012E012EE12E0
:10013000F212F212EE12AB29D229CA2AD229CA2A05
:100140001E2A412ACA2A982AA72A04000500060066
:100150000700080009000A000B0027001E004445A4
:100160004255473A2064697361626C65642E0A00E7
:1001700044454255473A20656E61626C65642E0ABB
:10018000000A002530313662003A2000253032580E
:10019000000A722F63203031323334353637383924
:1001A0004142434445460A000A00253032582000A7
:1001B0006B6579626F6172645F7265706F72743AB9
:1001C00020000A0025303258006B6579626F617239
:1001D000645F7365745F6C65643A2000290A0025CA
:1001E00075002F002575005D28002564002000257E
:1001F0006400200025640020002564007C00253078
:100200003258006D6F7573656B6579205B62746E33
:100210007C782079207620685D287265702F616374
:100220006C293A205B006D6B5F776865656C5F7465
:10023000696D655F746F5F6D6178203D2025640A8C
:10024000006D6B5F776865656C5F6D61785F73707B
:10025000656564203D2025640A006D6B5F74696DDF
:10026000655F746F5F6D6178203D2025640A006DC5
:100270006B5F6D61785F7370656564203D202564F8
:100280000A006D6B5F696E74657276616C203D204B
:1002900025640A006D6B5F64656C6179203D2025E3
:1002A000640A006D6B5F776865656C5F74696D6586
:1002B0005F746F5F6D6178203D2025640A006D6B6F
:1002C0005F776865656C5F6D61785F7370656564A5
:1002D000203D2025640A006D6B5F74696D655F7455
:1002E0006F5F6D6178203D2025640A006D6B5F6D46
:1002F00061785F7370656564203D2025640A006D38
:100300006B5F696E74657276616C203D2025640AAE
:10031000006D6B5F64656C6179203D2025640A0087
:100320000A00257500363A20776865656C5F746948
:100330006D655F746F5F6D61783A20000A00257506
:1003400000353A20776865656C5F6D61785F737022
:100350006565643A20000A00257500343A20746906
:100360006D655F746F5F6D61783A20000A002575D6
:1003700000333A206D61785F73706565643A2000E0
:100380000A00257500323A20696E74657276616CD8
:10039000286D73293A20000A00257500313A20643F
:1003A000656C6179282A31306D73293A20000A0979
:1003B0002D2056616C756573202D0A004D3E004D51
:1003C00025643E20003F0073657420646566617596
:1003D0006C740A00433E200077686572652064658E
:1003E0006C74613A20637572736F723D25642C20C2
:1003F000776865656C3D25640A536565206874748B
:10040000703A2F2F656E2E77696B6970656469612C
:100410002E6F72672F77696B692F4D6F7573655FEC
:100420006B6579730A000A092D204D6F7573656B32
:100430006579202D0A4553432F713A097175697406
:100440000A313A0964656C6179282A31306D732963
:100450000A323A09696E74657276616C286D732987
:100460000A333A096D61785F73706565640A343ADE
:100470000974696D655F746F5F6D61780A353A095B
:10048000776865656C5F6D61785F73706565640A38
:10049000363A09776865656C5F74696D655F746F7E
:1004A0005F6D61780A0A703A097072696E7420761D
:1004B000616C7565730A643A0973657420646566D6
:1004C00061756C74730A75703A092B310A646F7721
:1004D0006E3A092D310A706775703A092B31300A6E
:1004E0007067646F776E3A092D31300A0A73706550
:1004F0006564203D2064656C7461202A206D6178FC
:100500005F7370656564202A202872657065617468
:10051000202F2074696D655F746F5F6D6178290AA3
:10052000003F004D3E2000433E20004C25640A0061
:1005300074696D65725F72656164333228293A208F
:100540002530346C580A006B6579626F6172645FA4
:1005500069646C653A2025580A006B6579626F61A1
:1005600072645F70726F746F636F6C3A2025580A03
:1005700000686F73745F6B6579626F6172645F6C42
:1005800065647328293A2025580A000A092D20534A
:100590007461747573202D0A004743433A20352E49
:1005A000342E30204156522D4C4942433A20322EAF
:1005B000302E30204156525F415243483A206176F6
:1005C00072350A004F5054494F4E533A204C55460D
:1005D00041204D4F5553454B4559204558545241A4
:1005E0004B455920434F4E534F4C4520434F4D4DA3
:1005F000414E4420343039360A004255494C443A81
:100600002022323031392D30362D30372D31383AE5
:1006100034383A333222202831383A34383A3335B4
:10062000204A756E2020372032303139290A005691
:1006300049443A2030784645454428506572616EF9
:10064000656B6F466163746F727929205049443A33
:100650002030783030303028746F6E652920564550
:10066000523A203078303030310A00444553433A12
:10067000204120637573746F6D206B6579626F61C3
:1006800072640A000A092D2056657273696F6E2024
:100690002D0A000A092D20436F6E736F6C65202DA3
:1006A0000A4553432F713A09717569740A6D3A0905
:1006B0006D6F7573656B65790A000A092D204D61B0
:1006C000676963202D0A443A094465627567204DC5
:1006D00065737361676520546F67676C650A583A84
:1006E000094D6174726978204465627567204D6FA9
:1006F000646520546F67676C65202D2053686F77A1
:10070000206B65797072657373657320696E206DF7
:10071000617472697820677269640A4B3A094B65A3
:1007200079626F61726420446562756720546F67F7
:10073000676C65202D2053686F77206B6579707228
:10074000657373207265706F72740A4D3A0944655F
:10075000627567204D6F75736520546F67676C65B0
:100760000A563A0956657273696F6E0A533A09530D
:1007700074617475730A433A0941637469766174EC
:100780006520436F6E736F6C65204D6F64650A461C
:10079000312D4631303A0953776974636820746F9C
:1007A000204C6179657220302D3920284631302067
:1007B0003D204C30290A302D393A0953776974634A
:1007C0006820746F204C6179657220302D390A479A
:1007D000524156453A0953776974636820746F2013
:1007E0004C6179657220302028616C7465726E618D
:1007F0007465290A423A094A756D7020746F204267
:100800006F6F746C6F616465720A4553433A094AAD
:10081000756D7020746F20426F6F746C6F616465CA
:10082000722028616C7465726E617465290A453A9C
:10083000095072696E7420454550524F4D205365E2
:100840007474696E67730A4253504143453A0943D1
:100850006C65617220454550524F4D0A000A0025D3
:1008600075002E6E6B726F3A20000A002575002EFF
:10087000737761705F6261636B736C6173685F62F1
:1008800061636B73706163653A20000A002575002F
:100890002E737761705F67726176655F6573633A27
:1008A00020000A002575002E6E6F5F6775693A207B
:1008B000000A002575002E737761705F72616C7499
:1008C0005F726775693A20000A002575002E7377FC
:1008D00061705F6C616C745F6C6775693A20000AC7
:1008E000002575002E636170736C6F636B5F746FAE
:1008F0005F636F6E74726F6C3A20000A002575009A
:100900002E737761705F636F6E74726F6C5F63617B
:1009100070736C6F636B3A20000A00253032580008
:100920006B65796D61705F636F6E6669672E72616A
:10093000773A20000A002575002E6D6F7573653AB1
:1009400020000A002575002E6B6579626F61726464
:100950003A20000A002575002E6D61747269783A9C
:1009600020000A002575002E656E61626C653A20D4
:10097000000A00253032580064656275675F636F56
:100980006E6669672E7261773A20000A002575004D
:1009900064656661756C745F6C617965723A20009C
:1009A0003F000A6D6F7573653A206F66660A000A2C
:1009B0006D6F7573653A206F6E0A000A6B65796218
:1009C0006F6172643A206F66660A000A6B6579622D
:1009D0006F6172643A206F6E0A000A6D6174726909
:1009E000783A206F66660A000A6D61747269783A17
:1009F000206F6E0A000A64656275673A206F66664A
:100A00000A000A64656275673A206F6E0A000A0A76
:100A10004A756D70696E6720746F20626F6F746CB9
:100A20006F616465722E2E2E2000433E2000436CC1
:100A3000656172696E6720454550524F4D0A0065E9
:100A400065636F6E6669673A0A005B735D004B65AC
:100A500079626F6172642073746172742E0A005B34
:100A6000575D005B535D005B525D005B445D005B66
:100A7000435D000403300000000A0374006F006E41
:100A80000065000000200350006500720061006EE8
:100A90000065006B006F0046006100630074006F2A
:100AA000007200790000000403090409025B0003DE
:100AB0000100A0FA0904000001030101000921114D
:100AC0000100012240000705810308000A09040112
:100AD0000001030000000921110100012285000727
:100AE00005820320000A0904020002030000000935
:100AF00021110100012222000705830320000107C4
:100B00000503032000011201100100000008EDFEA2
:100B100000000100010203010631FF0974A101096F
:100B200075150026FF0095207508810209761500CD
:100B300026FF00952075089102C005010902A10158
:100B400085020901A10005091901290515002501E2
:100B50009505750181029501750381010501093033
:100B600009311581257F950275088106093815819F
:100B7000257F950175088106050C0A380215812527
:100B80007F950175088106C0C005010980A1018516
:100B9000031601002603001A81002A8300751095B0
:100BA000018100C0050C0901A10185041601002680
:100BB0009C021A01002A9C02751095018100C00553
:100BC000010906A101050719E029E715002501958E
:100BD000087501810295017508810105081901292F
:100BE0000595057501910295017503910105071998
:100BF0000029FF150026FF00950675088100C0003A
:100C000011241FBECFEFDAE0DEBFCDBF04B603FE76
:100C100027C08091E7019091E801A091E901B0918E
:100C2000EA018730904BA740B04BD1F41092E70116
:100C30001092E8011092E9011092EA0114BE84B703
:100C4000877F84BF0FB6F894A89580916000886173
:100C500080936000109260000FBEE0E0F8E3099519
:100C600011E0A0E0B1E0E6EFF6E502C005900D92DC
:100C7000A634B107D9F721E0A6E4B1E001C01D9286
:100C8000A73EB207E1F70E948D250C94792B0C94B6
:100C90000000FF93EF93E0914601F09147013097F8
:100CA00009F00995EF91FF910895FC01859180303D
:100CB00011F0EFDFFBCF0895FF27E0E230E247FFBE
:100CC0000CC0419597FF09C0EDE260957095809545
:100CD0009095611D711D811D911D27FF02C02195F9
:100CE00030E350E2AA27660F771F881F991FAA1FBB
:100CF000A41710F0A41B63955A95A9F7AA3008F021
:100D0000A95FA05DAF93F39561157105810591050C
:100D100041F7ED3211F4EF93F395F21718F43F9386
:100D2000F395FBCF8F91B5DFFA95E1F70895E9913F
:100D3000F9918591803021F0853219F0AADFF9CF41
:100D4000089520E0E89455915532C1F3503311F4E1
:100D5000689455915A3348F4505390F3220F022E61
:100D6000220F220F200D250FF4CF0EF4219589912B
:100D70009991533619F3533729F1533559F1BC0181
:100D800088279927E8945C3621F489919991689491
:100D90005591543639F446EF7EF077FF0DC08FEF52
:100DA0009FEF0AC055374AE039F0583540E121F04D
:100DB000523642E009F00895FF93EF937DDFEF9103
:100DC000FF91B7CFFF93EF93FC0181918030B9F38E
:100DD00060DFFBCFFF93EF9368DFF1CFDF93CF931B
:100DE000CDB7DEB72596A3DFCF91DF9108956623B7
:100DF00011F087E201C08EE10C940F100895089560
:100E0000089581E0089581E008950C9403071F93ED
:100E1000CF93DF9300D000D01F92CDB7DEB74983C8
:100E20005A836B8320915E0189819A81211112C0BE
:100E3000662349F00E943018182F682F89819A8103
:100E40000E94D91703C00E940418182F69817A8163
:100E5000812F04C00E94301869817A810F900F9011
:100E60000F900F900F90DF91CF911F910C945D0820
:100E7000FC01408151816281738184810C94070758
:100E80000E948C19811102C00E94061A0E94D20B86
:100E90000C94D30A0E94E30B0C94D50A0C9400071F
:100EA0000C944E0708950E94CE120E9452072FEF15
:100EB00084E39CE0215080409040E1F700C00000B6
:100EC0000C94321B0F931F93CF93DF938C010E94DE
:100ED0003807EC01B8010E9405078823C9F0B80162
:100EE000CE010E94940C882399F0C531FCE5DF0700
:100EF00008F086C0C2308CE5D80760F4C115ECE577
:100F0000DE0709F059C0F801828181110E94530760
:100F1000C0E0C9C0F8018281882309F450C00E9452
:100F20008C19811102C00E94061A0E949F1990E03C
:100F30009093D9018093D801FE01E350FC45E23142
:100F4000F10530F4EA5AFF4F8091D8010C941D2B23
:100F50008091D801816027C0826025C0846023C051
:100F6000806121C080621FC080641DC080681BC07A
:100F70008460886018C08E7F16C08D7F14C08B7F00
:100F800012C08F7E10C08F7D0EC08F7B0CC08F77FC
:100F90000AC08B7F877F07C087FB222720F991E05B
:100FA000922790FB87F98093D8018091D8010E9405
:100FB000A3190E94CE12ACCFC130DC4539F0C80174
:100FC000DF91CF911F910F910C940107F80182815D
:100FD000882309F49DCF8091B601C82FC095C170B8
:100FE000C0FB80F98093B601CC2329F080E791E023
:100FF0000E9455068DCF8EE591E00E94550653C0A4
:10100000CC3D8CE5D80739F4F8018281882309F4B6
:101010007FCF80E00EC0CD3DECE5DE0768F0CD3D32
:101020008CE5D807A1F5F8018281882309F470CFF7
:1010300082E00E9433266CCFC631DC4509F0BFCF79
:101040000E94B118982FF8018281209100013091FF
:101050000101882379F09A7A81E009F480E0809395
:101060004801911102C069E201C065E3C9010E9413
:101070003B1A0AC080914801811102C069E201C097
:1010800065E3C9010E943D1A0E94FF1841CFCE3D81
:10109000DC4509F094CFF8018281882309F438CF28
:1010A0000E94061A35CF8C2FDF91CF911F910F919F
:1010B000089580E090E008950895272F30E0280FEC
:1010C000311D8AE0829FF001839FF00D1124E60F0D
:1010D000F11DEE0FFF1FE65BFE4F85919491089581
:1010E000880F991FFC01EF57FE4F85919491089549
:1010F000CF93DF930E945D080E94340AEC018115B2
:10110000904508F041C0C11580E4D80708F028C117
:10111000C83ED10510F5C03ED10508F0A1C1C83ABE
:10112000D10578F4C53AD10508F0A2C0C130D10587
:1011300009F496C108F447C1C430D10508F090C144
:1011400042C1CF3BD10508F49EC0C03CD10508F494
:101150003AC1CE01805C9109F5C0C11590E2D90772
:1011600058F4C11521E0D20708F07AC1C03FD1057B
:1011700008F429C1D06574C1C11580E3D80708F00F
:10118000E5C0CE019F70DEC0C11595E5D90708F016
:1011900043C0C11524E5D20708F0F9C0C11582E5A6
:1011A000D80708F5C11591E5D90708F0DCC0CE01D4
:1011B00074E0969587957A95E1F783709C2F9370EC
:1011C00021E030E002C0220F331F9A95E2F73C681D
:1011D000382BCF70C695C69580E2C89FE0011124D8
:1011E000C22BD32B3DC19E01237033278C2F8695B4
:1011F0008695C115D34508F0BBC0C1E0D0E002C060
:10120000CC0FDD1F2A95E2F720E2829FC001112456
:10121000C82BD92BDC6824C1C11529E5D207A0F45D
:10122000C11588E5D80708F0B7C0C11596E5D907FC
:1012300008F0C9C08C2F0E94B00A8F71C82FD0E06F
:10124000DC2FCC27D0620CC1C1152AE5D20708F4E7
:10125000A8C0CE0190568115904208F0B4C08D2FE1
:101260008F710E94B00ADD27D0628F71D82BF8C031
:10127000C53AD10509F4AAC0C63AD10509F0A9C0FA
:10128000C2E8D0E4EDC0C83AD10509F4A5C0C93A16
:10129000D10509F4A4C0CA3AD10509F4A3C0CB3AD8
:1012A000D10509F4A2C0CC3AD10509F4A1C0CB3BC9
:1012B000D10509F4A0C0CC3BD10509F49FC0CD3ABB
:1012C000D10509F49EC0C03BD10509F49DC0CE3ABA
:1012D000D10509F49CC0CF3AD10509F49BC0C13BAC
:1012E000D10509F49AC0C23BD10509F499C0C33BAA
:1012F000D10509F498C0C43BD10509F497C0C53B9A
:10130000D10509F496C0C63BD10509F495C0C73B89
:10131000D10509F494C0C83BD10509F493C0C93B79
:10132000D10509F492C0CD3BD10509F491C0CE3B63
:10133000D10509F490C0CA3BD10509F48FC0C0E0C3
:10134000D4E48EC00E947008EC018AC0CE019927B7
:10135000D3FF03C0EC01D86C83C0EC01D06C80C01B
:10136000DF70D06A7DC0DC2FCC27C16FD06A78C017
:10137000C1E0D0E002C0CC0FDD1F2A95E2F720E2E9
:10138000829FC0011124C82BD92BDA6869C0DC2FD9
:10139000CC27C46FD06A64C0DC2FCC27C06FD06A62
:1013A0005FC08C2F8F700E94B00A94E0D695C795CD
:1013B0009A95E1F7CF70D0E0DC2FCC27D06A8F7000
:1013C000806EC82B4DC0C0E0D0E04AC0C1E8D0E478
:1013D00047C0C3E8D0E444C0C2EED4E441C0C9EE83
:1013E000D4E43EC0CAEED4E43BC0C5EBD4E438C07C
:1013F000C6EBD4E435C0C3EBD4E432C0C4EBD4E4D0
:101400002FC0C7EBD4E42CC0CCECD4E429C0CDEC85
:10141000D4E426C0C3E8D5E423C0CAE8D5E420C09C
:10142000C2E9D5E41DC0C4E9D5E41AC0C1E2D6E4DE
:1014300017C0C3E2D6E414C0C4E2D6E411C0C5E2CA
:10144000D6E40EC0C6E2D6E40BC0C7E2D6E408C0BC
:10145000CFE6D4E405C0C0E7D4E402C0CAE2D6E4D3
:10146000CE01DF91CF9108958238910549F1B0F412
:101470008133910509F459C048F48932910509F482
:101480004FC08A32910509F455C0089585339105FE
:1014900009F441C08933910599F00895833E91057F
:1014A00031F138F4803E910591F0823E9105A9F02A
:1014B0000895863E910501F1873E910539F1089521
:1014C0002091D80120FD3BC021FD39C008958091B5
:1014D000D80180FF34C089E341C08091D80182FFE8
:1014E00030C08091D80184FD2EC083EE37C080913A
:1014F000D80182FD26C0F5CF8091D80183FF25C099
:101500008091D80184FD1FC087EE28C08091D8014A
:1015100083FD1BC0F5CF8091D80185FD18C019C08F
:101520008091D80185FD15C012C08091D80186FD3B
:1015300012C013C08091D80186FD0FC00CC080EE90
:101540000DC082EE0BC080E009C086EE07C089E2C4
:1015500005C085E303C08AE201C081E390E00895FD
:101560009091D80192FF0DC0282F2871283019F4CE
:10157000877F846006C0282F2471243011F48B7F6C
:10158000886093FF0DC0282F2871283119F4877EB9
:10159000846106C0282F2471243111F48B7E886168
:1015A00094FD877E08950C94FE060C94FF06E82FA8
:1015B000F0E0EE0FFF1FE75BFE4F80819181089501
:1015C00081E991E00E9455061F921F928CE891E0FC
:1015D0009F938F930E94EE0689E891E00E94550642
:1015E0008091490190914A010E9479199F938F93AC
:1015F00083E891E09F938F930E94EE068DB79EB78C
:1016000008960FB6F8949EBF0FBE8DBF81E891E09B
:101610000C945506CF93DF9380B380BBA3E1B1E078
:101620004DE151E061E070E08D91E82FE295EF70BF
:10163000F0E021A18F70EB0102C0CC0FDD1F8A9575
:10164000E2F7CE019C2F9095922391A392A1892B32
:1016500082A34A175B0741F710924C0110924B018D
:1016600010924A011092490181E00E94950BDF918E
:10167000CF910C944007CF93DF9360914B01709111
:101680004C0110924C0110924B0180B380BB81B38E
:1016900081BB80EA8A95F1F7E3E1F1E020E030E0F8
:1016A000A1E0B0E04191C42FC295CF70D0E088A1F5
:1016B000C0914B01D0914C0190E04F7002C09595C4
:1016C00087954A95E2F780FD08C0CD01022E02C041
:1016D000880F991F0A94E2F702C080E090E08C2BFB
:1016E0009D2B90934C0180934B012F5F3F4F2A30ED
:1016F0003105C1F680B380BB81B381BBC1E080916D
:101700004B0190914C018617970709F4C0E02C2FEC
:1017100041E069E471E08BE491E00E94960B0E9445
:101720004A078C2FDF91CF9108950895FF920F9370
:101730001F93CF93DF93F82E092F162FD72FC42F87
:10174000222349F081E080934F010E94CA1A9093AE
:101750004E0180934D0180914F018823D9F08091F3
:101760004D0190914E010E94E21A069798F0EF2DDC
:10177000F02FA12FBD2F80E090E04C2F50E0841778
:10178000950734F4219131912D933D930196F7CF34
:1017900010924F01DF91CF911F910F91FF9008950B
:1017A0000C94F70625982D9A24982C9A83B185FBE2
:1017B000882780F91C9902C090E001C092E0892B33
:1017C000809351010895E0915101EE0FEE0FE093E7
:1017D000510143B145FB222720F930E043B144FBDE
:1017E000882780F990E044FF02C082E090E0822BDD
:1017F000932B8E2B809351018F70E82FF0E0E35EE6
:10180000FE4F908180915001890F80935001843068
:1018100024F060E080E00E94D00B809150018D3F69
:1018200024F461E080E00E94D00B80915001837825
:1018300087FF03C081508C6F8F5F809350010895A4
:101840000F931F93CF93DF93C62FD42F122FFC013A
:1018500082818823C9F0609354010E94CA1A909330
:1018600053018093520180E28C0F883008F057C0FA
:10187000C77081E001C0880FCA95EAF7DF91CF9168
:101880001F910F910C94221080915401681330C065
:1018900080915201909153010E94E21A883C910577
:1018A00038F500E20D0FCD17B9F080E28C0F8830CB
:1018B00040F4C77081E001C0880FCA95EAF70E9422
:1018C0002910083028F581E09D2F977001C0880FFE
:1018D0009A95EAF70E942210812F0E940F1008307B
:1018E000F0F4D77081E001C0880FDA95EAF70AC0FA
:1018F00080E28C0F883098F4C77081E001C0880FB7
:10190000CA95EAF7DF91CF911F910F910C9429109E
:10191000812FDF91CF911F910F910C940F10DF91C8
:10192000CF911F910F9108959C01CB01203F4CE571
:101930003407F9F078F4283DFCE53F07B9F0293D7C
:101940004CE5340711F1273D3C4531F526E241EEE7
:1019500061EE1EC0223FFCE53F0799F070F0233F87
:101960003C45D1F427E245EE66EE12C027E245EE93
:101970000EC026E241EE60EE0BC027E245EE64EEBB
:1019800007C026E241EE62EE03C028E241E065EEC8
:101990000E94200C80E00895FC018281882319F0C8
:1019A00010925401089581E0089590935A01809314
:1019B00059010895E0915901F0915A01309721F0B1
:1019C0000190F081E02D099480E00895EF92FF925C
:1019D0000F931F93CF93DF93E0915901F0915A0138
:1019E0003097B1F18C010280F381E02D099580914F
:1019F000B60182FF2DC080FF04C080EB91E00E9401
:101A00005506E80118E08AEAE82E81E0F82E809178
:101A1000B60180FF0BC088811F928F93FF92EF92D7
:101A20000E94EE060F900F900F900F90115021968C
:101A30001111EDCF8091B60180FF0AC088EA91E0D4
:101A4000DF91CF911F910F91FF90EF900C9455066D
:101A5000DF91CF911F910F91FF90EF900895E0914A
:101A60005901F0915A01309739F022E0DC012C93B2
:101A70000480F581E02D099408952091570130915B
:101A800058012817390771F0909358018093570136
:101A9000E0915901F0915A01309721F00680F781C9
:101AA000E02D099408952091550130915601281791
:101AB000390771F09093560180935501E0915901D7
:101AC000F0915A01309721F00084F185E02D0994BE
:101AD000089585B7806885BF85B7806885BF0895FC
:101AE00008950C94700D0C94710D0C94700D0C9461
:101AF000700D0E94690D0E94750D0C94730D81E0AC
:101B000008950E94C11A0E940A0B0E94561B0C9451
:101B1000770DCF93C82F8091B60182FF1EC080FF42
:101B200004C089EC91E00E9455068091B60180FFC7
:101B30000CC01F92CF9384EC91E09F938F930E94EF
:101B4000EE060F900F900F900F908091B60180FFDE
:101B500004C082EC91E00E9455068C2FCF910C942A
:101B60005007CF92DF92EF92FF920F931F93CF9384
:101B7000DF93CDB7DEB72A970FB6F894DEBF0FBE5E
:101B8000CDBF0E943B0B0E947F0D882309F446C005
:101B900080E00E94D70A7C01C0905C01D0905D017A
:101BA000C826D926C114D104C9F18091B60181FD9E
:101BB0000E94E00A80E090E021E030E08901082EF8
:101BC00002C0000F111F0A94E2F7A601402351231F
:101BD000452B01F18E831F82E022F12281E0EF2864
:101BE00009F480E088870E94CA1A8160782F9A875A
:101BF00089874E815F8168858A850E94490E809120
:101C00005C0190915D010827192710935D010093F5
:101C10005C0114C001968A30910581F68FEF8983AB
:101C20008A831B820E94CA1A8160782F9D838C83CD
:101C300049815A816B818D810E94490E0E946B1DE2
:101C40000E94DA0C90915B018917A1F00E94DA0CD6
:101C500080935B012A960FB6F894DEBF0FBECDBF0E
:101C6000DF91CF911F910F91FF90EF90DF90CF9078
:101C70000C94890D2A960FB6F894DEBF0FBECDBF27
:101C8000DF91CF911F910F91FF90EF90DF90CF9058
:101C90000895CF93DF93CDB7DEB72B970FB6F894A7
:101CA000DEBF0FBECDBF4F83588769877A878B878A
:101CB000DE01119686E0FD0111928A95E9F785E033
:101CC000FE01379601900D928A95E1F749815A817C
:101CD0006B817C818D819E810E949E152B960FB613
:101CE000F894DEBF0FBECDBFDF91CF910895FC0108
:101CF000808191810E9472180895CF93882309F4FE
:101D000024C1C82F8238C1F40E94DA0C81FD1DC1A4
:101D100069E380910001909101010E943B1A0E94A9
:101D2000FF182FEF81EE94E0215080409040E1F7C2
:101D300000C0000069E319C0833801F50E94DA0C85
:101D400080FD03C163E580910001909101010E9433
:101D50003B1A0E94FF182FEF81EE94E02150804043
:101D60009040E1F700C0000063E580910001909190
:101D700001010E943D1ACF910C94FF188438C1F4E0
:101D80000E94DA0C82FDE1C067E48091000190912D
:101D900001010E943B1A0E94FF182FEF81EE94E090
:101DA000215080409040E1F700C0000067E4DDCFA3
:101DB0008CEF8C0F813A68F48C2F0E94D82181110E
:101DC000C4C06C2F80910001909101010E943B1AC8
:101DD000D2CF80E28C0F883048F4C77081E001C018
:101DE000880FCA95EAF70E94B418C5CF8BE58C0F0F
:101DF000833078F4C53A29F0C63A31F083E890E0B0
:101E000005C081E890E002C082E890E0CF910C9498
:101E10003D0D88E58C0F873108F08FC0C83A09F472
:101E200045C0C93A09F445C0CA3A09F445C0CB3A9D
:101E300009F445C0CC3A09F445C0CB3B09F445C090
:101E4000CC3B09F445C0CD3A09F445C0C03B09F488
:101E500045C0CE3A09F445C0CF3A09F445C0C13B6C
:101E600009F445C0C23B09F445C0C33B09F445C071
:101E7000C43B09F445C0C53B09F445C0C63B09F461
:101E800045C0C73B09F445C0C83B09F445C0C93B40
:101E900009F445C0CD3B09F445C0CE3B09F445C02B
:101EA000CA3B09F445C080E090E044C082EE90E077
:101EB00041C089EE90E03EC08AEE90E03BC085EBE9
:101EC00090E038C086EB90E035C083EB90E032C004
:101ED00084EB90E02FC087EB90E02CC08CEC90E07E
:101EE00029C08DEC90E026C083E891E023C08AE809
:101EF00091E020C082E991E01DC084E991E01AC020
:101F000081E292E017C083E292E014C084E292E0A2
:101F100011C085E292E00EC086E292E00BC087E23B
:101F200092E008C08FE690E005C080E790E002C034
:101F30008AE292E0CF910C94530DC03F30F08C2F89
:101F40000E94F11BCF910C94DE1CCF910895882341
:101F500009F464C0823879F40E94DA0C81FF5EC013
:101F600069E380910001909101010E943B1A0E9457
:101F7000FF1869E310C08338B1F40E94DA0C80FFC7
:101F80004DC063E580910001909101010E943B1AD0
:101F90000E94FF1863E580910001909101010E9469
:101FA0003D1A0C94FF18843879F40E94DA0C82FFF1
:101FB00035C067E480910001909101010E943B1AB5
:101FC0000E94FF1867E4E7CF9CEF980F913A10F456
:101FD000682FE1CF90E2980F983050F4877091E02D
:101FE00001C0990F8A95EAF7892F0E94BA18D9CFB4
:101FF0009BE5980F933020F480E090E00C943D0D29
:1020000098E5980F973120F480E090E00C94530D00
:10201000803F20F00E94591C0C94DE1C0895CF9341
:10202000C82F0E947D0EC93349F42FEF83EC99E04D
:10203000215080409040E1F700C000008C2FCF91EC
:102040000C94A70F882321F00E94B4180C94FF1859
:102050000895882321F00E94BA180C94FF1808955F
:102060008F929F92AF92BF92DF92EF92FF920F9367
:102070001F93CF93DF937C01062FC72FFC0115819F
:1020800012951F70D281D1110E94D1180E94AA18F6
:10209000882379F0DD2369F080E2800F883048F0F2
:1020A00082E00E9449190E94AA1891E0D82ED926F0
:1020B00001C0D12CBC2EB2948FE0B8228B2D90E0C1
:1020C000FC01E859FF4F0C941D2B8C2F807FCF70A3
:1020D000882311F0C295C07FDD2399F0CC2309F449
:1020E000B9C180E2800F883010F0011104C08C2F3C
:1020F0000E94B41803C08C2F0E94C4180E94FF18BD
:10210000A9C1802F0E94A70FCC2309F4C8C180E287
:10211000800F883010F0011104C08C2F0E94BA1873
:1021200003C08C2F0E94CA180E94FF18B8C18C2FC0
:10213000807FCF70803211F0C295C07F002319F0EC
:102140000130C9F022C0DD2371F0112341F01130BC
:1021500031F40E94E4188C2B0E94EC18A0C10E945C
:10216000E4188C2B30C1112319F0113009F497C1F8
:102170000E94F51818C0DD2321F0163008F08FC139
:102180000EC0153008F08BC10EC0DD2351F01123B5
:1021900031F0F701858180FF5DC18F7085838C2FC1
:1021A00012C1111168C18C2F14C18C2F8695869590
:1021B000837019F0813061F072C1DD2321F0802F2E
:1021C0009C2F937002C080E090E00E943D0D74C18E
:1021D000DD2321F0802F9C2F937002C080E090E0DF
:1021E0000E94530D69C1DD23F9F0053F51F0063F10
:1021F00071F0043FA9F48091D2019091D3018160E4
:102200000BC08091D2019091D301826005C0809172
:10221000D2019091D30184609093D3018093D20135
:10222000802F0E94F11B1EC0053F51F0063F71F048
:10223000043FA9F48091D2019091D3018E7F0BC00D
:102240008091D2019091D3018D7F05C08091D20100
:102250009091D3018B7F9093D3018093D201802FF3
:102260000E94591C0E94DE1C27C18C2F837009F02C
:1022700047C0D1111DC1202F229526952770220F0E
:10228000220F602F6F70862F90E0A0E0B0E04C012D
:102290005D01022E04C0880C991CAA1CBB1C0A9468
:1022A000D2F704FF10C08FE090E0A0E0B0E004C0DF
:1022B000880F991FAA1FBB1F2A95D2F7809590956A
:1022C000A095B09503C080E090E0DC01C695C6956E
:1022D000C370BC01CD01682979298A299B29C230A4
:1022E00049F058F4C13019F00E94EF16E1C00E9485
:1022F000DD16DEC00E940117DBC00E94DB16D8C0CD
:10230000DD2319F08C2F817001C08695882309F494
:10231000CFC0202F229526952770220F220F602FE5
:102320006F70862F90E0A0E0B0E04C015D01022EBE
:1023300004C0880C991CAA1CBB1C0A94D2F704FF89
:1023400010C08FE090E0A0E0B0E004C0880F991FBB
:10235000AA1FBB1F2A95D2F780959095A095B0959E
:1023600003C080E090E0DC01C695C695C370BC0157
:10237000CD01682979298A299B29C23049F058F46E
:10238000C13019F00E94B41793C00E94A21790C0E8
:102390000E94C6178DC00E9415178AC0802F90E03A
:1023A000FC01E05EF109E531F10508F04FC0E858A5
:1023B000FF4F0C941D2B0F708C2F8F71DD2331F08C
:1023C0000E943B17802F0E94221069C00E945C1758
:1023D000802F0E94291063C0DD2341F0153008F0E2
:1023E0005EC08C2F8F710E94811759C0163008F083
:1023F00056C0F7CFDD2339F08C2F8F710E943B1729
:102400004EC0DD23C9F38C2F8F710E945C1747C02B
:10241000DD2329F08C2F8F710E94261740C00E9467
:1024200021173DC0DD2349F0CF718C2F0E943B174F
:1024300063E08C2F0E94341932C081E00E94491958
:10244000123068F182E00E94491929C0DD2331F081
:10245000112391F2802F0E947D0E21C0112399F249
:10246000093349F4FFEF23EC89E0F150204080402C
:10247000E1F700C00000802F0E94A70F10C04C2F72
:102480004F70602FC7010E9459080E944C1614C05B
:102490004C2F4F70602FC7010E945C080DC098E060
:1024A000B91631F0B91640F086EF8B0D823020F46A
:1024B0000E94DA0C0E945007DD20E1F00E94A6186D
:1024C00080FD18C0F70112820E94A0180E943B17DD
:1024D000C7010E9486120E94A018DF91CF911F9120
:1024E0000F91FF90EF90DF90BF90AF909F908F90F3
:1024F0000C945C17DF91CF911F910F91FF90EF909B
:10250000DF90BF90AF909F908F9008950F931F938F
:10251000CF93DF93EC01988189812B813C81232B20
:1025200031F08F3F31F481E09F3F19F403C081E027
:1025300001C080E080FD13C0CE010E9462078823A5
:1025400071F0688179818A810E947D188C010E94D6
:10255000D8170E94C916B801CE010E943010DF9131
:10256000CF911F910F9108950E94D1180E94E118F8
:102570000E94FF180E94061E0E94DE1C80E090E070
:102580000E943D0D80E090E00C94530D809100017D
:10259000909101010E943F1A0C94B4120E94C1183C
:1025A0000C94C612E92FE295EF704E2F50E0FA011D
:1025B0003297EE30F105B0F4E357FF4F0C941D2B2A
:1025C000803F91F018F4803E68F40EC0843F51F4CF
:1025D0000BC0803E48F0813F29F406C093FB88275A
:1025E00080F9089580E0089581E008950E947218AE
:1025F0000E94D2120895CF93DF9300D000D01F9293
:10260000CDB7DEB70F900F900F900F900F90DF9126
:10261000CF910895CF93DF9300D000D000D0CDB7F5
:10262000DEB726960FB6F894DEBF0FBECDBFDF91A2
:10263000CF9108951F93CF93DF93C0915F0116E070
:1026400080916001C81799F0D0E01C9FF0011D9F98
:10265000F00D1124EF59FE4F408151816281738149
:10266000848195810E940A132196C770E9CFDF917A
:10267000CF911F91089540919101509192016091E5
:1026800093017091940180919501909196010C9421
:102690000A13CF938091960182958F7009F05FC0E5
:1026A00080919301882309F45AC080915F01B09111
:1026B000600170919101A09192014091940150911B
:1026C000950191E07F3F09F090E0692FC6E08B17FC
:1026D00009F445C04115510521F0AF3F21F020E03C
:1026E00003C021E001C0262F90E020FD35C0C89F27
:1026F000F001C99FF00D1124EF59FE4F21812A13DB
:102700002BC02081271328C02281211125C02381BD
:1027100034812417350710F421503109241B350B5F
:10272000283C3105C8F4209196012F702061209338
:10273000960126E0289FF001299FF00D1124EA5907
:10274000FE4F80818F708061808381E991E00E94DB
:102750008612CF910C941A1301968770B8CFCF913F
:102760000895AF92BF92CF92DF92EF92FF920F93B4
:102770001F93CF93DF93CDB7DEB761970FB6F89471
:10278000DEBF0FBECDBF8C0185E0F801DE011D96D6
:1027900001900D928A95E1F7D8014C9111965C91C8
:1027A00011971296EC903091910160919201809175
:1027B000940190919501009731F06F3F31F421E041
:1027C0003F3F19F403C021E001C020E0B22FB170F7
:1027D000BB2E20FD60C1F801C380D480A09093017E
:1027E000AA2009F4EEC020919601C816D90628F057
:1027F000D601A81BB90BCD0104C0809590958C0D16
:102800009D1DFF24F394883C910580F0F12C207FDE
:1028100009F09CC07C2DD98AC88A6E2D89890E94B6
:10282000FB1281E991E00E9486122DC1822F807FE8
:1028300009F054C0561314C0431312C0FE2CE1100B
:102840000FC02F702061209396010E943B1381E9F5
:1028500091E00E94861280919601F80185835CC107
:10286000CD2831F05F3F31F481E04F3F19F403C0D0
:1028700081E001C080E080FD03C081E08E2502C0C0
:1028800080E090E0F82FF170FF2E80FF1CC0809157
:102890005F012091600136E0821709F41AC190E0CF
:1028A000389FF001399FF00D1124EF59FE4F6181DF
:1028B000561306C06081461303C06281E61203C04E
:1028C00001968770E9CFFE2CEE2009F425C1809196
:1028D0009601816080939601F12C1EC1561309C0A8
:1028E000431307C0E11005C080919601F80185836C
:1028F000A4C04D875E878D859E850E94F612882331
:1029000079F1EE2069F120919601822F82958F70E6
:1029100090E0029774F080919101909192019887D4
:102920008F831986DB86CA862C87CE0107960E9484
:10293000861286E0F801A1E9B1E001900D928A9536
:10294000E1F70E9449130E943B130DC0561771F026
:102950004D875E878D859E850E94F61281111AC073
:10296000C8010E948612FF24F394D6C04313F0CF0F
:10297000E110EECF80919601F8018583C8010E9495
:10298000861286E0E1E9F1E0DF011D928A95E9F720
:10299000FA2CC2C0EE2021F320919601822F82955D
:1029A0008F7090E002972CF28091910190919201AA
:1029B0009A8389831B82DD82CC822E83CE0101968D
:1029C000B6CFC816D90628F0F601E81BF90BCF01DF
:1029D00004C0809590958C0D9D1D883C910548F014
:1029E000F12C7C2DD98AC88A6E2D89890E94FB1210
:1029F0004AC0FE2CEE2009F4B3CF561333C0431364
:102A000031C02091960120FD24C0822F82958F70C5
:102A1000482F50E041155105E1F0D80115962C934F
:102A200015974F30510549F08F5F982F9295907F01
:102A3000822F8F70892B15968C93C8010E94861265
:102A400086E0F801A1E9B1E001900D928A95E1F7E5
:102A50003DC086E0F801A1E9B1E001900D928A95B0
:102A6000E1F75AC04D875E878D859E850E94F612DC
:102A700081115FCF80919601816080939601C8019A
:102A80000E94861249C0E1E9F1E086E0DF011D9273
:102A90008A95E9F71BC0EE2009F462CF4D875E8767
:102AA0008D859E850E94F612F82E882309F458CF52
:102AB00086E0F801A1E9B1E001900D928A95E1F775
:102AC00081E991E00E94770E0E9449130E943B1316
:102AD00023C04D875E878D859E850E947218292FA1
:102AE00022952F70223028F49F7039F0811105C093
:102AF0000BC0243028F49F7049F4805E883020F0A9
:102B0000C8010E948612BF2CFB2C06C0D801159666
:102B10009C91907F91F7F8CF8F2D61960FB6F89426
:102B2000DEBF0FBECDBFDF91CF911F910F91FF9000
:102B3000EF90DF90CF90BF90AF9008951F93CF9309
:102B4000DF93CDB7DEB72C970FB6F894DEBF0FBE7C
:102B5000CDBF4F83588769877A878B879C87CE0143
:102B600007960E94B1138823D1F09F8188852A851A
:102B70003B85232B31F08F3F31F481E09F3F19F4E7
:102B800003C081E001C080E080FD47C04F815885CF
:102B900069857A858B859C850E940A133EC086E0F4
:102BA000FE013796DE01119601900D928A95E1F7AC
:102BB000FF81E8856A857B856115710531F0EF3FFE
:102BC00031F481E0FF3F19F403C081E001C080E0EF
:102BD00080FD23C02091600130E0C901019687701B
:102BE000992740915F0150E084179507F1F1F9832F
:102BF000EA837D836C8396E0929FD001939FB00D12
:102C00001124AF59BE4FFE01319601900D929A9555
:102C1000E1F7809360010E941A1316E080915F0132
:102C200090916001891771F1189FC00111248F598B
:102C30009E4F0E94B113882329F1E0915F011E9FEE
:102C4000F0011124EF59FE4F40815181628173815F
:102C5000848195810E940A1380915F0190E0019622
:102C60008770992780935F01D9CF0E94CE1210926E
:102C7000600110925F01E1E9F1E086E0DF011D9261
:102C80008A95E9F72C960FB6F894DEBF0FBECDBF3C
:102C9000DF91CF911F910895EF92FF920F931F93B1
:102CA000CF93DF938C01892B09F46CC0F12CEE24B7
:102CB000E394E8012196F8018491843740F484304C
:102CC00008F051C0813081F0823019F15BC0853746
:102CD00009F444C0A8F19CE7980F903708F052C05F
:102CE0008F770E94A70F41C00E5F1F4FFE01849196
:102CF00090E2980F983050F48770FE2D01C0FF0FBE
:102D00008A95EAF78F2F0E94D41814C00E947D0E76
:102D10002DC00E5F1F4FFE01849190E2980F9830F6
:102D200060F48770FE2D01C0FF0F8A95EAF78F2FA0
:102D30000E94DA180E94FF1819C00E94A70F16C03F
:102D40000E5F1F4FFE01C491CC2381F08FE99FE0FD
:102D50000197F1F700C00000C150F6CF0E5F1F4F82
:102D6000FE01F49003C00E947D0E8E018F2D8823FA
:102D700009F49FCFEFE9FFE03197F1F700C00000C1
:102D80008150F5CFDF91CF911F910F91FF90EF9080
:102D90000895089508950C94CA160C94CB160E94B9
:102DA000CD166093A5017093A6018093A70190931F
:102DB000A8010C94B4120C94CF160F931F9300919A
:102DC000A5011091A6012091A7013091A801602BC7
:102DD000712B822B932B1F910F910C94CF160F9375
:102DE0001F930091A5011091A6012091A701309198
:102DF000A80160237123822393231F910F910C94C8
:102E0000CF160F931F930091A5011091A601209159
:102E1000A7013091A80160277127822793271F916E
:102E20000F910C94CF160C94CA160E94131760933E
:102E3000A1017093A2018093A3019093A4010C942B
:102E4000B41260E070E0CB010C9415170F931F9340
:102E500041E050E060E070E08A019B0104C0000F97
:102E6000111F221F331F8A95D2F7C901B8011F9184
:102E70000F910C9415170F931F9341E050E060E001
:102E800070E004C0440F551F661F771F8A95D2F764
:102E90008091A1019091A201A091A301B091A40100
:102EA0008A019B01082B192B2A2B3B2BC901B80146
:102EB0001F910F910C9415170F931F9341E050E051
:102EC00060E070E004C0440F551F661F771F8A95AD
:102ED000D2F740955095609570958091A1019091A1
:102EE000A201A091A301B091A4018A019B01082332
:102EF00019232A233B23C901B8011F910F910C9478
:102F000015170F931F9341E050E060E070E004C09C
:102F1000440F551F661F771F8A95D2F78091A10134
:102F20009091A201A091A301B091A4018A019B01FB
:102F3000082719272A273B27C901B8011F910F919C
:102F40000C9415170F931F930091A1011091A201EA
:102F50002091A3013091A401602B712B822B932B24
:102F60001F910F910C9415170F931F930091A101BE
:102F70001091A2012091A3013091A401602371233B
:102F8000822393231F910F910C9415170F931F9376
:102F90000091A1011091A2012091A3013091A401FF
:102FA00060277127822793271F910F910C94151783
:102FB00008952AE0929F800D1124E82FE695E6956A
:102FC000E695877051E001C0550F8A95EAF785E0D4
:102FD000E89FF0011124E956FE4F20E030E070E058
:102FE0004081CB01022E02C0969587950A94E2F7A4
:102FF0008170819584278523842781932F5F3F4F9C
:103000002530310569F708952AE0929F800D11243B
:10301000682F669566956695982F977085E0689FEE
:10302000B001112440E050E080E0FB01E40FF51F07
:10303000E956FE4F208130E0092E02C036952795D3
:103040000A94E2F721703327042E01C0220F0A945C
:10305000EAF7822B4F5F5F4F4530510531F70895F6
:10306000BF92CF92DF92EF92FF920F931F93CF9375
:10307000DF938C01C090A101D090A201E090A30148
:10308000F090A4018091A5019091A601A091A701C3
:10309000B091A801C82AD92AEA2AFB2ACFE1D0E0B8
:1030A000D701C6010C2E04C0B695A79597958795B4
:1030B0000A94D2F780FD04C0219790F7B12C07C085
:1030C000BC2EB8018C2F0E9478080197A9F38B2D94
:1030D000DF91CF911F910F91FF90EF90DF90CF90F4
:1030E000BF900895CF93DF93EC010E943018BE018A
:1030F0000E947808DF91CF9108951F93CF93DF93BB
:10310000EB0190915E01992321F0CB010E9472188E
:1031100013C0882349F0CB010E943018182F682F64
:10312000CE010E94D91704C0CB010E940418182FA9
:10313000BE01812F0E947808DF91CF911F910895E1
:103140008091A90185958595859508958091A9011E
:10315000877008959091A901977081E009F480E04B
:1031600008958091B50108959091B501892B8093C0
:10317000B501089580959091B50189238093B5019B
:1031800008951092B50108959091B401892B809310
:10319000B401089580959091B40189238093B4017E
:1031A00008951092B40108959091B301892B8093F2
:1031B000B301089580959091B30189238093B30161
:1031C00008951092B30108958091AA010895089579
:1031D0000C94E7180C94E8189091AA01981721F024
:1031E0008093AA010C94EA1808958091AA0188237B
:1031F00029F01092AA0180E00C94EA180895E09159
:103200000001F09101018091B5018083E0910001FE
:10321000F091010190818091B401892B8083E0912C
:103220000001F091010190818091B301892B80838D
:103230008091AA01882381F0E0910001F0910101C1
:103240009081892B808380910001909101010E94DF
:10325000081A81110E94F5188091000190910101D6
:103260000C94E60C0C94E71898E0899F90011124C7
:10327000262B2093A9010E943B178091A9018595D7
:10328000859585950C9432191092A90180E00C94D3
:1032900032192091A901809582238093A901982F4A
:1032A000977079F430E0482F082E000C550B241746
:1032B000350739F08595859585950E945C170C94A6
:1032C000441908959093470180934601089582958B
:1032D000982F937344E0949F900111248C7C8695E1
:1032E0008695282B822F8575880F2A7A2695822B22
:1032F0000895CF93DF93D92F0E946719C82F8D2F80
:103300000E9467192C2F30E0322F2227A901482B69
:10331000CA01DF91CF91089580E090E00E943F2B99
:1033200021E08D3E9E4F09F020E0822F089582E03B
:1033300090E00C94372B83E090E00C94372B84E0E2
:1033400090E00C94372B682F84E090E00C94452B90
:10335000AB01BC018FE090E00C94572BAB01BC019A
:1033600083E190E00C94572B60E070E0CB010C946B
:10337000AE1960E070E0CB010E94A8190C94B4195A
:103380006DEE7EEF80E090E00E94632B60E082E0D3
:1033900090E00E94452B60E083E090E00E94452B86
:1033A0001092A5011092A6011092A7011092A801F7
:1033B00060E084E090E00E94452B60E085E090E0D2
:1033C0000E94452B60E086E090E00E94452B6FEF65
:1033D00087E090E00E94452B40E050E0BA0188E091
:1033E00090E00E94572B60E08DE090E00E94452B1A
:1033F00040E050E0BA0188E190E00E94572B60E085
:1034000087E190E00E94452B0C94B9190C94C019E7
:10341000FC01329697E080E0915029F0219122231F
:10342000D9F38F5FF9CF08959C01FC0132969FEF8D
:1034300080E04191461789F09F3F19F4411101C086
:10344000982F8F5F8630A9F79F3F39F0F901E90F78
:10345000F11D97FDFA956283089508959C012A5FF6
:103460003F4FFC014281461301C012820196821730
:103470009307B9F708950C94141A0C942E1A029617
:1034800026E0FC0111922A95E9F7089508950C941D
:10349000461A0C94461A0E94491A0E943B0B0E943D
:1034A000471A80E00E94D70A21E0892B09F420E026
:1034B000822F08950C94461A0C945A1A0E945C1A92
:1034C0008091DE01843049F11092B70120E488E157
:1034D00090E00FB6F894A895809360000FBE2093FB
:1034E000600080E00E9450070E945C1A83B7817FD1
:1034F000846083BF83B7816083BF7894889583B7E6
:103500008E7F83BF0FB6F894A89580916000886184
:1035100080936000109260000FBE08950C94461ACC
:103520000E94CE120E94DA0C0E9450070C948E1A50
:103530001F920F920FB60F9211248F939F93AF9308
:10354000BF938091B701811113C08091D4019091F4
:10355000D501A091D601B091D7014196A11DB11D11
:103560008093D4019093D501A093D601B093D70155
:10357000BF91AF919F918F910F900FBE0F901F90B1
:10358000189582E084BD93E095BD9AEF97BD809336
:103590006E0008952FB7F8948091D4019091D501D1
:1035A000A091D601B091D7012FBF08952FB7F894FD
:1035B0006091D4017091D5018091D6019091D7018D
:1035C0002FBF0895CF92DF92EF92FF920F931F9338
:1035D0002FB7F8944091D4015091D5016091D60154
:1035E0007091D7012FBF6A017B01EE24FF248C016B
:1035F00020E030E0C016D106E206F30610F4415098
:1036000051099A01281B390BC9011F910F91FF9095
:10361000EF90DF90CF90089578941F920F920FB69D
:103620000F9211248F939F93AF93BF938091D401F6
:103630009091D501A091D601B091D7010196A11D1D
:10364000B11D8093D4019093D501A093D601B0937E
:10365000D701BF91AF919F918F910F900FBE0F90A7
:103660001F90189581E08093E00080E28093D8005D
:103670001092C9008FE19EE40197F1F700C00000AD
:1036800087E090EBDC018093E7019093E801A09341
:10369000E901B093EA019CE088E10FB6F894A8959F
:1036A000809360000FBE90936000FFCF0E948C1942
:1036B000811102C00E94061A0E9497198093B601D8
:1036C0000E949F1990E09093D9018093D8010E94A5
:1036D0009B19682F70E080E090E00C94DB168091DD
:1036E000BB0180FF0BC06091050185E0689FB001C0
:1036F000112475956795759567952BC081FF09C055
:103700006091050185E0689FB0011124759567956A
:1037100020C082FF07C06091050185E0689FB0016D
:10372000112417C09091BA019923D1F0609104013E
:10373000961788F72091050185E0289F90011124B4
:10374000929FA001939F500D112470E0CA010E9426
:10375000092B6038710540F46115710519F406C034
:1037600065E070E0862F08958FE7089581E0089561
:103770008091BB0180FF08C06091030170E07595E6
:1037800067957595679521C081FF06C0609103011B
:1037900070E07595679519C082FF04C060910301C0
:1037A00070E010C09091BA01992399F060910201E4
:1037B0009617A0F780910301899FC001112470E042
:1037C0000E94092B6038710540F46115710519F4E8
:1037D00006C061E070E0862F08958FE7089581E0CC
:1037E0000895803F21F40E946F1B819504C0813FA2
:1037F00029F40E946F1B8093BF010895823F21F43A
:103800000E946F1B819504C0833F29F40E946F1BA7
:103810008093BE010895893F19F40E94B81B05C02A
:103820008A3F31F40E94B81B81958093C0010895AE
:103830008B3F21F40E94B81B819504C08C3F29F472
:103840000E94B81B8093C1010895843F21F48091A8
:10385000BD01816017C0853F21F48091BD01826068
:1038600011C0863F21F48091BD0184600BC0873F69
:1038700021F48091BD01886005C0883F31F48091BA
:10388000BD0180618093BD0108958D3F21F4809139
:10389000BB0181600BC08E3F21F48091BB0182602F
:1038A00005C08F3F29F48091BB0184608093BB01E8
:1038B0000895803F39F48091BF0187FF6CC010925A
:1038C000BF0169C0813F29F48091BF011816BCF384
:1038D00062C09091BE01823F29F497FF5CC01092B4
:1038E000BE0159C0833F19F41916CCF354C0893F67
:1038F00041F48091C00118160CF04DC01092C00127
:103900004AC08A3F29F48091C00187FF44C0F6CFA6
:103910008B3F39F48091C10187FF3DC01092C101F6
:103920003AC08C3F29F48091C1011816BCF333C012
:10393000843F21F48091BD018E7F17C0853F21F423
:103940008091BD018D7F11C0863F21F48091BD0122
:103950008B7F0BC0873F21F48091BD01877F05C01D
:10396000883F31F48091BD018F7E8093BD0113C0EB
:103970008D3F21F48091BB018E7F0BC08E3F21F4DF
:103980008091BB018D7F05C08F3F29F48091BB01E1
:103990008B7F8093BB018091BE0181110EC080910D
:1039A000BF0181110AC08091C001811106C08091C0
:1039B000C101811102C01092BA0108958091B6012F
:1039C00083FF7EC083E092E00E9455068091BD0196
:1039D0001F928F938EEF91E09F938F930E94EE063C
:1039E0008CEF91E00E9455068091BE01282F082E91
:1039F000000C330B3F938F9389EF91E09F938F934C
:103A00000E94EE0687EF91E00E9455068091BF016B
:103A1000282F082E000C330B3F938F9384EF91E0F7
:103A20009F938F930E94EE0682EF91E00E945506CD
:103A30008091C001282F082E000C330B3F938F93E9
:103A40008FEE91E09F938F930E94EE068DEE91E0B2
:103A50000E9455068091C101282F082E000C330BBF
:103A60003F938F938AEE91E09F938F930E94EE068F
:103A700087EE91E00E9455068091BA011F928F93C4
:103A800084EE91E09F938F930E94EE0682EE91E088
:103A90000E9455068091BB011F928F938FED91E09C
:103AA0009F938F930E94EE068CED91E00E94550645
:103AB0008DB79EB74C960FB6F8949EBF0FBE8DBFC4
:103AC0008CEB91E00E942F0D0E94CA1A9093B901CD
:103AD0008093B80108951F93CF93DF938091B8012D
:103AE0009091B9010E94E21AAC019091BA01992318
:103AF00021F02091060130E006C0209107018AE004
:103B0000289F900111244217530708F47BC080912D
:103B1000BE01C091BF01D091C0011091C1018111BE
:103B200007C0C1116BC0D11169C0111167C06AC053
:103B30009F3F19F09F5F9093BA01181624F40E94DA
:103B40006F1B8093BE018091BE0187FF05C00E945C
:103B50006F1B81958093BE011C1624F40E946F1B7D
:103B60008093BF018091BF0187FF05C00E946F1B3A
:103B700081958093BF013091BE013323E1F0209104
:103B8000BF012223C1F045EB3403C0011124992366
:103B900019F09093BE0103C081E08093BE0135EB24
:103BA0002303C0011124992319F09093BF0103C08E
:103BB00081E08093BF011D1624F40E94B81B8093FE
:103BC000C0018091C00187FF05C00E94B81B81958C
:103BD0008093C001111624F40E94B81B8093C10188
:103BE0008091C10187FF05C00E94B81B8195809319
:103BF000C101DF91CF911F910C94DE1C9F3F09F012
:103C000099CFAACFDF91CF911F910895ECEBF1E00E
:103C100086E0DF011D928A95E9F71092BA011092B1
:103C2000BB01089586E294E00E9455061F9281E050
:103C30008F931F9285E08F9388ED93E09F938F93EE
:103C40000E94EE060F900F900F900F900F900F9024
:103C500008958330E9F128F4813061F0823009F170
:103C60000895853009F462C008F449C0863009F42B
:103C700074C0089580910701262F30E0280F311D70
:103C80002F3F310524F4680F6093070103C08FEFC5
:103C900080930701809107011F928F9381E193E048
:103CA00072C080910601262F30E0280F311D2F3F72
:103CB000310524F4680F6093060103C08FEF8093F1
:103CC0000601809106011F928F938FEF92E05BC0F7
:103CD00080910501262F30E0280F311D2F3F31053F
:103CE00024F4680F6093050103C08FEF80930501F2
:103CF000809105011F928F938CEE92E044C08091D9
:103D00000401262F30E0280F311D2F3F310524F408
:103D1000680F6093040103C08FEF809304018091CA
:103D200004011F928F9387ED92E02DC080910301D3
:103D3000262F30E0280F311D2F3F310524F4680F66
:103D40006093030103C08FEF80930301809103010F
:103D50001F928F938EEB92E016C080910201262F66
:103D600030E0280F311D2F3F310524F4680F609398
:103D7000020103C08FEF80930201809102011F9224
:103D80008F9383EA92E09F938F930E94EE060F90A9
:103D90000F900F900F900895833081F128F48130B7
:103DA00059F08230D1F00895853009F449C0B8F156
:103DB000863009F456C0089580910701681720F4F1
:103DC000861B8093070102C01092070180910701B2
:103DD0001F928F9384E992E054C080910601681786
:103DE00020F4861B8093060102C010920601809188
:103DF00006011F928F9382E892E043C080910501F3
:103E0000681720F4861B8093050102C010920501FB
:103E1000809105011F928F938FE692E032C08091CE
:103E20000401681720F4861B8093040102C01092DD
:103E30000401809104011F928F938AE592E021C0D2
:103E400080910301681720F4861B8093030102C050
:103E500010920301809103011F928F9381E492E0FD
:103E600010C080910201681720F4861B8093020124
:103E700002C010920201809102011F928F9386E28C
:103E800092E09F938F930E94EE060F900F900F90F9
:103E90000F900895CF93C82F1F928F938BE295E0D8
:103EA0009F938F930E94EE0681E090E0A0E0B0E047
:103EB000BC01CD0104C0660F771F881F991FCA95EA
:103EC000D2F70E94DB160F900F900F900F90CF91BA
:103ED0000C94CE12CF938B3109F4D1C108F067C195
:103EE0008B3009F48AC108F03DC1863009F488C1DD
:103EF00020F4853009F496C144C2873009F4A4C186
:103F0000883009F03EC28FE39AE00E94550680E9AE
:103F100099E00E9455060E949B191F928F938DE88D
:103F200099E09F938F930E94EE068BE899E00E94A0
:103F300055060E949719C82F88E799E00E945506F8
:103F40001F92CF9383E799E09F938F930E94EE0691
:103F500081E799E00E94550687E699E00E945506A0
:103F60008C2F81701F928F9384E699E09F938F939B
:103F70000E94EE0682E699E00E94550688E599E0E7
:103F80000E945506C1FB882780F91F928F9385E513
:103F900099E09F938F930E94EE0683E599E00E943B
:103FA000550687E499E00E945506C2FB882780F9F0
:103FB0001F928F9384E499E09F938F930E94EE0663
:103FC00082E499E00E94550689E399E00E94550633
:103FD000C3FBCC27C0F91F92CF9386E399E09F9350
:103FE0008F930E94EE0684E399E00E9455060E949A
:103FF0009F19C82F80E299E00E9455061F92CF9327
:104000008BE199E09F938F930E94EE0689E199E0FE
:104010000E94550680E099E00E9455068C2F817021
:104020001F928F938DEF98E09F938F930E94EE06DF
:104030008DB79EB780960FB6F8949EBF0FBE8DBF0A
:104040008BEF98E00E94550684EE98E00E9455069A
:10405000C1FB882780F91F928F9381EE98E09F9390
:104060008F930E94EE068FED98E00E9455068DEC2E
:1040700098E00E945506C2FB882780F91F928F9313
:104080008AEC98E09F938F930E94EE0688EC98E06C
:104090000E94550686EB98E00E945506C3FB8827D0
:1040A00080F91F928F9383EB98E09F938F930E94E8
:1040B000EE0681EB98E00E94550687EA98E00E94A0
:1040C0005506C4FB882780F91F928F9384EA98E0F5
:1040D0009F938F930E94EE0682EA98E00E94550615
:1040E00080E998E00E945506C5FB882780F91F9259
:1040F0008F938DE898E09F938F930E94EE068BE854
:1041000098E00E9455068FE698E00E945506C6FB8F
:10411000882780F91F928F938CE698E09F938F9366
:104120000E94EE068AE698E00E94550682E698E034
:104130000E945506C7FBCC27C0F91F92CF938FE58D
:1041400098E09F938F930E94EE068DE598E00E9481
:1041500055068DB79EB74C960FB6F8949EBF0FBE0E
:104160008DBF49C0803109F4B4C020F48E3009F409
:104170009AC007C1863109F4C7C0893109F001C16D
:1041800084E896E00E9455068BE696E00E9455066C
:104190008FE296E00E9455068AEF95E00E94550650
:1041A00084EC95E00E94550689E995E08FC08A323B
:1041B000E1F060F4873209F4E0C028F48E3108F4AD
:1041C000E0C08D51DBC0893269F1DBC0833448F433
:1041D0008A3308F0D0C0853309F4CFC0883369F042
:1041E000D0C0833409F4C9C0CCC08EE29AE00E94EA
:1041F00055060E94061AC1E0C9C08AEB96E066C067
:104200008091B601817F8E7F8093B60183E996E02D
:104210000E9455068AE29AE00E94550681E080934A
:10422000C301E9CF0E94CE128EE09AE00E945506AB
:104230009FEF23ED80E3915020408040E1F700C0E4
:1042400000000E94321BD7CF8091B601C82FC095C5
:10425000C170C0FB80F98093B601CC2329F082E0C5
:104260009AE00E94550692C085EF99E00E9455069B
:104270008091B601897F877F8093B601BCCF9091F2
:10428000B60191FBCC27C0F981E0C827892FC0FB7C
:1042900081F98093B601CC2319F088EE99E029C00A
:1042A0008AED99E013C09091B60192FBCC27C0F93A
:1042B00081E0C827892FC0FB82F98093B601CC2307
:1042C00019F08BEC99E015C08BEB99E00E94550634
:1042D00092CF9091B60193FBCC27C0F981E0C8271B
:1042E000892FC0FB83F98093B601CC2351F08FEA6C
:1042F00099E00E9455068091B60181608093B601D5
:1043000045C082EA99E0E2CF8BE895E00E9455062D
:104310000E94DA0C1F928F9381E795E09F938F9311
:104320000E94EE06809112011F928F938AE595E01C
:104330009F938F930E94EE068091D0011F928F93DE
:1043400087E495E09F938F930E94EE060E94D61A11
:104350009F938F937F936F9380E395E09F938F93C9
:104360000E94EE068DB79EB742960FB6F8949EBF98
:104370000FBE8DBF40CF895301C080E00E944A1F0D
:104380003ACF80EA99E00E945506C0E08C2FCF9189
:10439000089580E008950C94C9218E518A3030F43C
:1043A000E82FF0E0E35DFE4F8081089580E00895FE
:1043B000CF93C82F8091C301813059F020F0823013
:1043C00009F445C039C10E94B118823209F036C1E2
:1043D00004C00E94B118823261F48C2F0E94CB215C
:1043E000811104C08C2F0E946A1F2FC081E090E0D1
:1043F0002CC08C2F0E94C921811126C0C431E1F04C
:1044000070F4CB3081F0C031D1F40E94121E83E2EF
:1044100095E00E94550682E08093C30115C0C93221
:1044200059F0C83361F483E996E00E94550687E2AB
:1044300095E00E94550608C01092C30101C181E2B7
:1044400095E00E945506FCC081E08170FBC0C4323B
:1044500028F5CE3108F0C1C0CB30A1F1D0F4C7307F
:1044600009F0D0C08EE18093070182E380930601BA
:104470008AE08093050184E18093040188E08093C1
:10448000030188E28093020187EC93E00E945506C5
:10449000BCC0C33149F1C431C1F0B4C0CB3409F45C
:1044A000A6C028F4C93289F0C83361F0ABC0C13569
:1044B00009F49BC0C23509F496C0CE3409F0A2C0FD
:1044C0006AE09BC00E94121EA0C08091C201882396
:1044D00019F01092C20199C084ED93E00E94550634
:1044E00081E08093C301AEC08EEA93E00E9455063E
:1044F0008CE993E00E945506809107011F928F93EB
:1045000089E993E09F938F930E94EE0687E993E0F9
:104510000E94550685E893E00E94550680910601A9
:104520001F928F9382E893E09F938F930E94EE06F1
:1045300080E893E00E94550681E793E00E945506CB
:10454000809105011F928F938EE693E09F938F9346
:104550000E94EE068CE693E00E9455068BE593E000
:104560000E945506809104011F928F9388E593E085
:104570009F938F930E94EE0686E593E00E94550676
:1045800081E493E00E945506809103011F928F936E
:104590008EE393E09F938F930E94EE068CE393E06B
:1045A0000E94550685E293E00E9455068091020123
:1045B0001F928F9382E293E09F938F930E94EE0667
:1045C00080E293E00E9455068DB79EB748960FB6DD
:1045D000F8949EBF0FBE8DBF18C08C2F0E94CD21B6
:1045E0008093C20112C061E003C061E006C06AE0CE
:1045F0008091C2010E94291E08C08091C2010E94C0
:10460000CC1E03C085EC93E013C08091C2018823C7
:1046100069F01F928F938FEB93E09F938F930E948B
:10462000EE060F900F900F900F9004C08CEB93E06C
:104630000E94550681E006C01092C30180E002C0CE
:1046400080E003CFCF9108958091CF0108959FB767
:10465000F8941092C6019FBF9091DE01943009F04A
:1046600057C09091E9009F703091EC00232F21708A
:1046700030FD20E8922B23E02093E9002091EB000D
:1046800020FF43C02091EE0027FF3FC02091C401CE
:10469000222321F02091E80025FF37C01092C401A9
:1046A00026E03091E80035FD15C03091DE01343050
:1046B00061F53091EB0035FD28C0215021F481E0F7
:1046C0008093C40122C0EFE9FFE03197F1F700C009
:1046D0000000E7CF8093F1008091E80085FD0AC0DB
:1046E0008091E80080FFFCCF8091E8008E77809376
:1046F000E80006C08FB7F89421E02093C6018FBF71
:104700009F709093E90080E008959F709093E90076
:104710008FEF08950F931F93CF93DF9300D01F92D5
:10472000CDB7DEB78C010E944326823011F0843071
:1047300021F584E089831B830A8382E08093E9006A
:104740008FEF9091E800815095FD06C095ED9A9508
:10475000F1F700008111F5CF8091E80085FF0DC0D1
:1047600040E050E063E070E0CE0101960E946026D8
:104770008091E8008E778093E8000F900F900F9063
:10478000DF91CF911F910F910895CF93DF9300D0C8
:104790001F92CDB7DEB72091DE01243031F523E042
:1047A0002983805891099B838A8382E08093E90062
:1047B0008FEF9091E800815095FD06C095ED9A9598
:1047C000F1F700008111F5CF8091E80085FF0DC061
:1047D00040E050E063E070E0CE0101960E94602668
:1047E0008091E8008E778093E8000F900F900F90F3
:1047F000DF91CF910895CF93DF93EC010E94432680
:10480000823011F08430F9F482E08093E9008FEF78
:104810009091E800815095FD06C095ED9A95F1F7CD
:1048200000008111F5CF8091E80085FF0CC040E0C9
:1048300050E066E070E0CE010E9460268091E800C2
:104840008E778093E800DF91CF910895CF93DF9327
:10485000EC010E944326823011F0843039F581E06A
:104860008093E9008FEF9091E800815095FD06C09C
:1048700095ED9A95F1F700008111F5CF8091E80050
:1048800085FF14C040E050E068E070E0CE010E9477
:1048900060268091E8008E778093E80088E0FE0132
:1048A000A7ECB1E001900D928A95E1F7DF91CF91ED
:1048B00008958FE69AE00E9455068091DD018111EE
:1048C00009C00E94F1270E944E288091E200846076
:1048D0008093E20008958BE69AE00E9455061092BC
:1048E000DD01089587E69AE00C94550683E69AE088
:1048F0000C9455068FE59AE00E9455060C94901A88
:104900002091C5012F5F822F62E30E94FD2A992327
:1049100019F02093C50108951092C5018091C60138
:10492000882371F18091DE01843041F58091E900A6
:104930008F702091EC00922F917020FD90E8892BD0
:1049400093E09093E9009091EB0090FF14C0909158
:10495000EE0097FF10C09091E80095FF03C0109201
:10496000F100F9CF9091E80090FF05C09091E80028
:104970009E779093E8008F708093E9001092C601B3
:10498000089542E061EC81E00E946A2742E261EC16
:1049900082E00E946A2742E261EC83E00C946A277D
:1049A0008091E001833009F460C030F4813071F00F
:1049B000823009F499C008958A3009F485C08B309B
:1049C00009F46BC0893009F0A7C020C08091DF01D5
:1049D000813A09F0A1C08091E800877F8093E800C8
:1049E0008091E3019091E401892B21F468E087EC48
:1049F00091E003C060E080E090E070E00E94AB26B0
:104A00008091E8008B778093E80008958091DF0122
:104A1000813209F081C08091E3019091E401029715
:104A200008F07AC08091E800877F8093E800809149
:104A3000E80082FD05C08091DE018111F8CF6CC0D5
:104A40002091F3008091F20090E0922B029729F4DC
:104A50008091F1008B7F813021F48091F10080936F
:104A6000CF018091E8008B7753C08091DF01813ABC
:104A700009F052C08091E3019091E401892B09F083
:104A80004BC08091E800877F8093E8008091E80028
:104A900080FFFCCF8091120136C08091DF0181320E
:104AA000D9F58091E3019091E401892BA9F58091DA
:104AB000E800877F8093E8000E949F278091E101B2
:104AC000809312010C94CE128091DF01813221F586
:104AD0008091E800877F8093E8000E949F27809163
:104AE000E2018093D00108958091DF01813AA1F421
:104AF0008091E800877F8093E8008091E80080FF44
:104B0000FCCF8091D0018093F1008091E8008E77F6
:104B10008093E8000C949F27089584B7877F84BF13
:104B20000FB6F894A895809160008861809360002A
:104B3000109260000FBE80E88093610010926100C7
:104B40000E94790D0E94F1270E944E288091E20078
:104B500084608093E20087E293E20E946219789475
:104B60000E94E22A0E94810D88E091E00E94D50C0B
:104B70008EE49AE00E9455068091DE01853089F42A
:104B80008AE49AE00E9455060E945E1A8091DC0138
:104B9000882391F30E944B1A882371F30E944A26BE
:104BA000EBCF0E94B10DE8CF0C94D625292F3327E7
:104BB00023303105C9F060F42130310581F0223015
:104BC000310509F047C08BE590E02BEA3AE046C09A
:104BD0002132310511F12232310561F13BC082E110
:104BE00090E026E03BE03AC099278130910561F0E2
:104BF00040F08230910559F0039761F5E3E7FAE060
:104C000008C0E7EAFAE005C0E5E8FAE002C0E9E733
:104C1000FAE0849190E09F0121C063307105D0F4E7
:104C2000660F771FFB01E05CFE4F2081318189E038
:104C300090E014C06330710568F4FB01EE0FFF1FB4
:104C4000E65CFE4F20813181FB01E95CFE4F8081F3
:104C500090E004C080E090E020E030E0FA01318391
:104C6000208308950895CF93C82F0E943226C093C1
:104C7000D101CF9108958091DE01843011F081E05F
:104C8000089582E008958091D101811102C00C94B1
:104C90003B26089580E189BD82E189BD09B400FE0B
:104CA000FDCF8091D8008F7D8093D8008091E00067
:104CB00082608093E0008091E00081FDFCCF089548
:104CC000CF92DF92EF92FF920F931F93CF93DF93D8
:104CD000EC018B017A010E94BE27811133C0E114DF
:104CE000F10439F0F70180819181081B190BC80F7D
:104CF000D91FC12CD12C0115110519F18091E800A3
:104D000085FD16C08091E8008E778093E800E1145D
:104D1000F10449F0F70180819181C80ED91ED1823A
:104D2000C08285E00FC00E94BE27882321F30AC0FD
:104D300089918093F10001501109FFEFCF1ADF0A2A
:104D4000DACF80E0DF91CF911F910F91FF90EF902C
:104D5000DF90CF9008952091E5013091E60126176C
:104D6000370748F06115710539F42091E8002E7776
:104D70002093E80001C0B901FC0120E06115710534
:104D800079F18091DE018823F1F18530F1F1809194
:104D9000E80083FD3CC08091E80082FD2EC0809138
:104DA000E80080FFEBCF2091F3008091F20090E0CB
:104DB000922B6115710551F08830910538F42191DD
:104DC0002093F100615071090196F3CF21E008971B
:104DD00009F020E08091E8008E778093E800CECF44
:104DE0002111CFCF0AC08091DE01882361F0853088
:104DF00061F08091E80083FD0AC08091E80082FFA5
:104E0000F2CF80E0089582E0089583E0089581E084
:104E100008952091E5013091E6012617370748F003
:104E20006115710539F42091E8002E772093E80090
:104E300001C0B901FC0120E06115710591F180917B
:104E4000DE01882309F440C0853009F43FC0809119
:104E5000E80083FD3DC08091E80082FD2FC0809175
:104E6000E80080FFE9CF2091F3008091F20090E00C
:104E7000922B6115710559F08830910540F4249109
:104E80002093F1003196615071090196F2CF21E033
:104E9000089709F020E08091E8008E778093E80081
:104EA000CBCF2111CCCF0AC08091DE01882361F0E5
:104EB000853061F08091E80083FD0AC08091E800B0
:104EC00082FFF2CF80E0089582E0089583E00895A4
:104ED00081E00895982F973068F59093E90098172E
:104EE00039F07091EC002091ED005091F00003C07A
:104EF000242F762F50E021FD02C09F5FECCF309130
:104F0000EB003E7F3093EB003091ED003D7F30931E
:104F1000ED003091EB0031603093EB007093EC00CA
:104F20002093ED005093F0002091EE0027FDE5CF97
:104F300080E008958F708093E90081E0089580916A
:104F4000DF0187FF11C08091E80082FD05C08091DC
:104F5000DE018111F8CF11C08091E8008B770BC082
:104F60008091DE01882349F08091E80080FFF8CF2E
:104F70008091E8008E778093E80008952091E40006
:104F80003091E50095E64091EC00842F817040FF60
:104F900023C08091E80080FD1DC08091DE01882340
:104FA00099F0853099F08091EB0085FD11C040911A
:104FB000E4005091E5002417350729F3915011F0D2
:104FC0009A01E1CF84E0089582E0089583E0089596
:104FD00081E0089580E008954091E80042FFDDCF30
:104FE00008950E945F280E946728E0EEF0E080812B
:104FF00081608083E8EDF0E080818F77808319BC49
:10500000A7EDB0E08C918E7F8C9380818F7E808322
:105010001092DD0108950F931F93CF93DF930E94A9
:105020005F280E946728C8EDD0E088818F77888349
:1050300088818068888388818F7D888319BC1092DD
:10504000DE011092DA011092DC011092DB0100EE19
:1050500010E0F80180818B7F808388818160888364
:1050600042E060E080E00E946A27E1EEF0E08081AB
:105070008E7F8083E2EEF0E080818160808380819A
:1050800088608083F80180818E7F80838881806141
:105090008883DF91CF911F910F910895E8EDF0E0A3
:1050A00080818F7E8083E7EDF0E080818160808366
:1050B00084E082BF81E08093DD010C940B28E8ED51
:1050C000F0E080818E7F80831092E200089510923C
:1050D000DA001092E10008951F920F920FB60F921E
:1050E00011242F933F934F935F936F937F938F93ED
:1050F0009F93AF93BF93EF93FF938091E10082FF63
:105100000BC08091E20082FF07C08091E1008B7F9D
:105110008093E1000E9480248091DA0080FF1FC00C
:105120008091D80080FF1BC08091DA008E7F809331
:10513000DA008091D90080FF0DC080E189BD82E155
:1051400089BD09B400FEFDCF81E08093DE010E949D
:10515000592405C019BC1092DE010E946B24809175
:10516000E10080FF19C08091E20080FF15C08091AE
:10517000E2008E7F8093E2008091E2008061809364
:10518000E2008091D80080628093D80019BC85E04D
:105190008093DE010E9476248091E10084FF30C07C
:1051A0008091E20084FF2CC080E189BD82E189BD4D
:1051B00009B400FEFDCF8091D8008F7D8093D80088
:1051C0008091E1008F7E8093E1008091E2008F7EEC
:1051D0008093E2008091E20081608093E200809100
:1051E000DA01882311F084E007C08091E30087FD95
:1051F00002C081E001C083E08093DE010E947A2436
:105200008091E10083FF29C08091E20083FF25C0E7
:105210008091E100877F8093E10082E08093DE014E
:105220001092DA018091E1008E7F8093E1008091FD
:10523000E2008E7F8093E2008091E20080618093A3
:10524000E20042E060E080E00E946A278091F00086
:1052500088608093F0000E947224FF91EF91BF91CB
:10526000AF919F918F917F916F915F914F913F91FE
:105270002F910F900FBE0F901F9018951F920F92B5
:105280000FB60F9211242F933F934F935F936F9319
:105290007F938F939F93AF93BF93CF93DF93EF93BE
:1052A000FF93C091E900CF708091EC00D82FD170AE
:1052B00080FDD0E81092E9008091F000877F809314
:1052C000F00078940E9482291092E9008091F00009
:1052D00088608093F000CD2BCF70C093E900FF91E0
:1052E000EF91DF91CF91BF91AF919F918F917F917E
:1052F0006F915F914F913F912F910F900FBE0F9043
:105300001F9018951F93CF93DF93CDB7DEB7AA9761
:105310000FB6F894DEBF0FBECDBFEFEDF1E0809188
:10532000F100819321E0E73EF207C9F70E94D02403
:105330008091E80083FF2EC18091DF019091E00110
:10534000492F50E04A30510508F024C1FA01E556D2
:10535000FF4F0C941D2B803821F0823809F01AC1C0
:1053600008C08091DB019091DC01992389F0826073
:105370000FC08091E3018F70873008F00BC18093DC
:10538000E9008091EB0085FB882780F91092E90005
:105390009091E800977F9093E8008093F10010923D
:1053A000F100D1C0282F2D7F09F0F4C0882319F017
:1053B000823061F0EFC08091E101813009F0EAC0F4
:1053C000933009F080E08093DC012EC08091E101F0
:1053D00081112AC08091E3018F702FEF280F2630B2
:1053E00008F0D8C08093E9002091EB0020FF1CC09A
:1053F000933021F48091EB00806214C09091EB0017
:1054000090619093EB0021E030E0A90102C0440FCD
:10541000551F8A95E2F74093EA001092EA008091C6
:10542000EB0088608093EB001092E9008091E80027
:10543000877F8093E8000E949F27ACC08111AAC09B
:105440001091E1011F778091E3008078812B809398
:10545000E3008091E800877F8093E8000E949F2707
:105460008091E80080FFFCCF8091E300806880930A
:10547000E300111102C082E001C083E08093DE01ED
:1054800089C08058823008F085C08091E1019091F8
:10549000E2018C3D53E0950779F583E08A838AE247
:1054A00089834FB7F894DE01139620E03EE051E285
:1054B000E32FF0E050935700E49120FF03C0E29502
:1054C000EF703F5FEF708E2F90E0EA3010F0C796DC
:1054D00001C0C0968D939D932F5F243149F74FBF34
:1054E0008091E800877F8093E8006AE270E0CE0157
:1054F00001960E94AB2616C06091E3017091E40111
:10550000AE014F5F5F4F0E94D425BC01892B09F487
:1055100041C09091E800977F9093E80089819A813B
:105520000E9409278091E8008B778093E80032C0C1
:10553000803881F58091E800877F8093E800809132
:10554000DA018093F1008091E8008E7772CF8111AB
:1055500021C08091E1019091E20199270297D4F452
:105560008091E800877F8093E8008091E10180933B
:10557000DA010E949F278091DA01811106C0809193
:10558000E30087FD02C081E001C084E08093DE017A
:105590000E94C1248091E80083FF0AC08091E80046
:1055A000877F8093E8008091EB0080628093EB001E
:1055B000AA960FB6F894DEBF0FBECDBFDF91CF9194
:1055C0001F910895CF938091DE018823A1F0C091AF
:1055D000E900CF709091EC00892F817090FD80E8F8
:1055E000C82B1092E9008091E80083FD0E94822977
:1055F000CF70C093E900CF910895991B79E004C062
:10560000991F961708F0961B881F7A95C9F7809501
:10561000089597FB072E16F4009407D077FD09D064
:105620000E94232B07FC05D03EF4909581959F4F57
:105630000895709561957F4F0895EE0FFF1F0590B7
:10564000F491E02D0994AA1BBB1B51E107C0AA1FCE
:10565000BB1FA617B70710F0A61BB70B881F991F13
:105660005A95A9F780959095BC01CD010895F999B7
:10567000FECF92BD81BDF89A992780B50895A8E123
:10568000B0E042E050E00C946B2B262FF999FECF4E
:1056900092BD81BDF89A019700B4021639F01FBA85
:1056A00020BD0FB6F894FA9AF99A0FBE08950396A2
:1056B000272F0E94462B0E94452B252F0E94462B08
:1056C000242F0C94462B0196272F0E94462B0C94D6
:1056D000452BDC01CB01FC01F999FECF06C0F2BDE0
:1056E000E1BDF89A319600B40D9241505040B8F7A0
:0656F0000895F894FFCFBD
:1056F600AB012808140A321E24232624FB23C523C3
:105706008A2301F6F73133946697C6000000FF013D
:1057160000010000FFFF0000010001FF000102037D
:1057260004050607080900408522BF0B3A0B180B33
:06573600BD0AD60AEF0ACD
:00000001FF
