:100000000C94F7050C943E060C943E060C943E06A8
:100010000C943E060C943E060C943E060C943E0650
:100020000C943E060C943E060C9408280C94DA2896
:100030000C94411A0C943E060C943E060C943E0619
:100040000C943E060C943E060C943E060C943E0620
:100050000C943E060C94B51A0C943E060C943E0685
:100060000C943E060C943E060C943E060C943E0600
:100070000C943E060C943E060C943E060C943E06F0
:100080000C943E060C943E060C943E060C943E06E0
:100090000C943E060C943E060C943E060C943E06D0
:1000A0000C943E060C943E060C943E06EB07ED07BE
:1000B000F807EF07F107F307F507F707FA07FC075B
:1000C000FE070908000802080408060808080B08CB
:1000D000041004103610361074109210F811F81134
:1000E000D410F81177117711E811F811F811F11106
:1000F0008411841184118411841184118411841158
:100100008411841184118411841184118411841147
:100110009511A311AA11B111BB11891289129B1259
:100120009B1292129B129B129B1289128912971298
:100130009B129B12971247296E29662A6E29662AFE
:10014000BA29DD29662A342A432A08032B022B0008
:100150000500E10050014F011D01520051004445CE
:100160004255473A20656E61626C65642E0A000A4A
:10017000002530313662003A200025303258000A1E
:10018000722F6320303132333435363738394142BB
:10019000434445460A000A002530325820006B656A
:1001A00079626F6172645F7265706F72743A200079
:1001B0000A0025303258006B6579626F6172645FA6
:1001C0007365745F6C65643A2000290A0025750028
:1001D0002F002575005D280025640020002564009F
:1001E000200025640020002564007C002530325862
:1001F000006D6F7573656B6579205B62746E7C78DA
:100200002079207620685D287265702F61636C29E3
:100210003A205B006D6B5F776865656C5F74696D34
:10022000655F746F5F6D6178203D2025640A006D05
:100230006B5F776865656C5F6D61785F737065652E
:1002400064203D2025640A006D6B5F74696D655FF5
:10025000746F5F6D6178203D2025640A006D6B5FCF
:100260006D61785F7370656564203D2025640A00C8
:100270006D6B5F696E74657276616C203D202564DC
:100280000A006D6B5F64656C6179203D2025640A0E
:10029000006D6B5F776865656C5F74696D655F7431
:1002A0006F5F6D6178203D2025640A006D6B5F777C
:1002B0006865656C5F6D61785F7370656564203D2E
:1002C0002025640A006D6B5F74696D655F746F5FF4
:1002D0006D6178203D2025640A006D6B5F6D61784B
:1002E0005F7370656564203D2025640A006D6B5F57
:1002F000696E74657276616C203D2025640A006D1C
:100300006B5F64656C6179203D2025640A000A00FA
:10031000257500363A20776865656C5F74696D6590
:100320005F746F5F6D61783A20000A0025750035B3
:100330003A20776865656C5F6D61785F737065659D
:10034000643A20000A00257500343A2074696D650E
:100350005F746F5F6D61783A20000A002575003385
:100360003A206D61785F73706565643A20000A0019
:10037000257500323A20696E74657276616C286D5D
:1003800073293A20000A00257500313A2064656C13
:100390006179282A31306D73293A20000A092D200D
:1003A00056616C756573202D0A004D3E004D256425
:1003B0003E20003F007365742064656661756C744F
:1003C0000A00433E200077686572652064656C749E
:1003D000613A20637572736F723D25642C207768D3
:1003E00065656C3D25640A53656520687474703AD0
:1003F0002F2F656E2E77696B6970656469612E6F4A
:1004000072672F77696B692F4D6F7573655F6B65C9
:1004100079730A000A092D204D6F7573656B657934
:10042000202D0A4553432F713A09717569740A31B9
:100430003A0964656C6179282A31306D73290A3272
:100440003A09696E74657276616C286D73290A3396
:100450003A096D61785F73706565640A343A0974AE
:10046000696D655F746F5F6D61780A353A09776809
:1004700065656C5F6D61785F73706565640A363AB7
:1004800009776865656C5F74696D655F746F5F6D32
:1004900061780A0A703A097072696E742076616C2C
:1004A0007565730A643A09736574206465666175DD
:1004B0006C74730A75703A092B310A646F776E3A5F
:1004C000092D310A706775703A092B31300A70674F
:1004D000646F776E3A092D31300A0A73706565646E
:1004E000203D2064656C7461202A206D61785F7303
:1004F00070656564202A2028726570656174202FFC
:100500002074696D655F746F5F6D6178290A003FC3
:10051000004D3E2000433E20004C25640A007469D3
:100520006D65725F72656164333228293A20253027
:10053000346C580A006B6579626F6172645F69643C
:100540006C653A2025580A006B6579626F617264A8
:100550005F70726F746F636F6C3A2025580A006881
:100560006F73745F6B6579626F6172645F6C6564F1
:100570007328293A2025580A000A092D205374614E
:10058000747573202D0A004743433A20352E342ECC
:1005900030204156522D4C4942433A20322E302EC3
:1005A00030204156525F415243483A2061767235BD
:1005B0000A004F5054494F4E533A204C5546412063
:1005C0004D4F5553454B45592045585452414B4585
:1005D0005920434F4E534F4C4520434F4D4D414EB4
:1005E0004420343039360A004255494C443A2022DE
:1005F000323031392D30342D32382D32333A3235D4
:100600003A333422202832333A32353A34362041D4
:1006100070722032382032303139290A005649446C
:100620003A2030784645454428506572616E656BC6
:100630006F466163746F727929205049443A2030C3
:10064000783030303028746F6E6529205645523A24
:10065000203078303030310A00444553433A20414D
:1006600020637573746F6D206B6579626F6172645E
:100670000A000A092D2056657273696F6E202D0AD3
:10068000000A092D20436F6E736F6C65202D0A459B
:1006900053432F713A09717569740A6D3A096D6F88
:1006A0007573656B65790A000A092D204D616769CC
:1006B00063202D0A443A094465627567204D6573CD
:1006C0007361676520546F67676C650A583A094D16
:1006D0006174726978204465627567204D6F646546
:1006E00020546F67676C65202D2053686F77206BEF
:1006F00065797072657373657320696E206D6174BE
:1007000072697820677269640A4B3A094B657962AD
:100710006F61726420446562756720546F67676C0F
:1007200065202D2053686F77206B65797072657333
:1007300073207265706F72740A4D3A094465627570
:1007400067204D6F75736520546F67676C650A5637
:100750003A0956657273696F6E0A533A09537461A8
:100760007475730A433A094163746976617465204C
:10077000436F6E736F6C65204D6F64650A46312D53
:100780004631303A0953776974636820746F204C9E
:100790006179657220302D392028463130203D2086
:1007A0004C30290A302D393A09537769746368202F
:1007B000746F204C6179657220302D390A4752419F
:1007C00056453A0953776974636820746F204C6109
:1007D00079657220302028616C7465726E61746571
:1007E000290A423A094A756D7020746F20426F6F72
:1007F000746C6F616465720A4553433A094A756DBA
:100800007020746F20426F6F746C6F61646572202A
:1008100028616C7465726E617465290A453A0950E5
:1008200072696E7420454550524F4D205365747463
:10083000696E67730A4253504143453A09436C65F8
:10084000617220454550524F4D0A000A002575003F
:100850002E6E6B726F3A20000A002575002E73779A
:1008600061705F6261636B736C6173685F62616327
:100870006B73706163653A20000A002575002E7362
:100880007761705F67726176655F6573633A2000B8
:100890000A002575002E6E6F5F6775693A20000AA1
:1008A000002575002E737761705F72616C745F72E2
:1008B0006775693A20000A002575002E737761700C
:1008C0005F6C616C745F6C6775693A20000A002583
:1008D00075002E636170736C6F636B5F746F5F6321
:1008E0006F6E74726F6C3A20000A002575002E73CB
:1008F0007761705F636F6E74726F6C5F636170734A
:100900006C6F636B3A20000A0025303258006B652B
:10091000796D61705F636F6E6669672E7261773A99
:1009200020000A002575002E6D6F7573653A200052
:100930000A002575002E6B6579626F6172643A203A
:10094000000A002575002E6D61747269783A2000E6
:100950000A002575002E656E61626C653A20000AFA
:1009600000253032580064656275675F636F6E669C
:1009700069672E7261773A20000A00257500646568
:100980006661756C745F6C617965723A20003F0036
:100990000A6D6F7573653A206F66660A000A6D6F9F
:1009A0007573653A206F6E0A000A6B6579626F6134
:1009B00072643A206F66660A000A6B6579626F613D
:1009C00072643A206F6E0A000A6D61747269783A37
:1009D000206F66660A000A6D61747269783A206F4A
:1009E0006E0A000A64656275673A206F66660A00DF
:1009F0000A64656275673A206F6E0A000A0A4A75D2
:100A00006D70696E6720746F20626F6F746C6F61B8
:100A10006465722E2E2E2000433E2000436C6561DB
:100A200072696E6720454550524F4D0A00656563F7
:100A30006F6E6669673A0A005B735D004B657962A9
:100A40006F6172642073746172742E0A005B575D6B
:100A5000005B535D005B525D005B445D005B435D8A
:100A6000000403300000000A0374006F006E00658C
:100A7000000000200350006500720061006E0065F8
:100A8000006B006F0046006100630074006F00722D
:100A900000790000000403090409025B000301005F
:100AA000A0FA09040000010301010009211101005D
:100AB000012240000705810308000A090401000122
:100AC00003000000092111010001228500070582B1
:100AD0000320000A0904020002030000000921119A
:100AE00001000122220007058303200001070503FE
:100AF000032000011201100100000008EDFE0000BB
:100B00000100010203010631FF0974A101097515F5
:100B10000026FF009520750881020976150026FF42
:100B200000952075089102C005010902A101850206
:100B30000901A100050919012905150025019505DF
:100B400075018102950175038101050109300931A3
:100B50001581257F95027508810609381581257F45
:100B6000950175088106050C0A38021581257F95C7
:100B70000175088106C0C005010980A10185031621
:100B800001002603001A81002A8300751095018157
:100B900000C0050C0901A1018504160100269C0274
:100BA0001A01002A9C02751095018100C0050109F7
:100BB00006A101050719E029E7150025019508752B
:100BC0000181029501750881010508190129059522
:100BD0000575019102950175039101050719002919
:100BE000FF150026FF00950675088100C00011243E
:100BF0001FBECFEFDAE0DEBFCDBF04B603FE27C0D5
:100C00008091EA019091EB01A091EC01B091ED018E
:100C10008730904BA740B04BD1F41092EA0110926C
:100C2000EB011092EC011092ED0114BE84B7877FA6
:100C300084BF0FB6F894A895809160008861809376
:100C40006000109260000FBEE0E0F8E3099511E04B
:100C5000A0E0B1E0EEE2F6E502C005900D92A63408
:100C6000B107D9F721E0A6E4B1E001C01D92AA3E88
:100C7000B207E1F70E9429250C94152B0C94000073
:100C8000FF93EF93E0914601F0914701309709F00F
:100C90000995EF91FF910895FC018591803011F045
:100CA000EFDFFBCF0895FF27E0E230E247FF0CC003
:100CB000419597FF09C0EDE26095709580959095FC
:100CC000611D711D811D911D27FF02C0219530E31B
:100CD00050E2AA27660F771F881F991FAA1FA41723
:100CE00010F0A41B63955A95A9F7AA3008F0A95FE4
:100CF000A05DAF93F395611571058105910541F7ED
:100D0000ED3211F4EF93F395F21718F43F93F39546
:100D1000FBCF8F91B5DFFA95E1F70895E991F9914D
:100D20008591803021F0853219F0AADFF9CF08953E
:100D300020E0E89455915532C1F3503311F4689492
:100D400055915A3348F4505390F3220F022E220F3C
:100D5000220F200D250FF4CF0EF421958991999142
:100D6000533619F3533729F1533559F1BC0188270C
:100D70009927E8945C3621F489919991689455916A
:100D8000543639F446EF7EF077FF0DC08FEF9FEFBA
:100D90000AC055374AE039F0583540E121F0523663
:100DA00042E009F00895FF93EF937DDFEF91FF910B
:100DB000B7CFFF93EF93FC0181918030B9F360DFEF
:100DC000FBCFFF93EF9368DFF1CFDF93CF93CDB7E6
:100DD000DEB72596A3DFCF91DF910895662311F04A
:100DE00082E501C081E50C94B90F08950895089536
:100DF00081E0089581E008950C94FA061F93CF9343
:100E0000DF9300D000D01F92CDB7DEB749835A835D
:100E10006B832091610189819A81211112C066231F
:100E200049F00E94D917182F682F89819A810E9452
:100E3000821703C00E94AD17182F69817A81812F14
:100E400004C00E94D91769817A810F900F900F908A
:100E50000F900F90DF91CF911F910C94BD08FC0172
:100E6000408151816281738184810C94FE060E94CD
:100E70003519811102C00E94AF190E94310C0C94E7
:100E8000330B0E94420C0C94350B0C94F7060C9417
:100E9000450708950E9477120E9449072FEF84E3C7
:100EA0009CE0215080409040E1F700C000000C948D
:100EB000DB1A0F931F93CF93DF938C010E942F07B0
:100EC000EC01B8010E94FC06882309F44CC1C73D1F
:100ED0008CE5D80709F4AFC0B0F4C531FCE5DF07F5
:100EE00068F4C2308CE5D80708F053C0C115ECE5B2
:100EF000DE0701F1C130DC4529F129C1C631DC45ED
:100F000009F4FEC024C1CC3DECE5DE0791F150F4BC
:100F1000C83D8CE5D80709F4B1C0C93DDC4509F4EA
:100F2000D4C015C1CD3DFCE5DF0751F1CE3DDC4518
:100F3000C1F00DC1F8018281882309F414C10E9417
:100F40004A0711C1F8018281882309F40CC18091FC
:100F5000B90181608093B9018EE591E00E944C0651
:100F600002C1F8018281882309F4FDC00E94AF19F3
:100F7000FAC0F8018281882309F4F5C080E006C038
:100F8000F8018281882309F4EEC082E00E94CF2517
:100F9000EAC0F8018281882309F4DEC00E94351975
:100FA000811102C00E94AF190E94481990E09093ED
:100FB000DC018093DB01FE01E350FC45E231F105E9
:100FC00030F4EA5AFF4F8091DB010C94B92A8091EA
:100FD000DB01816027C0826025C0846023C08061FE
:100FE00021C080621FC080641DC080681BC08460F7
:100FF000886018C08E7F16C08D7F14C08B7F12C092
:101000008F7E10C08F7D0EC08F7B0CC08F770AC083
:101010008B7F877F07C087FB222720F991E09227EB
:1010200090FB87F98093DB018091DB010E944C19D2
:101030000E94771298C0F8018281882351F01092A3
:101040004D010E94731A90934A018093490182E0F6
:1010500022C080914D0181110FC080914901909172
:101060004A010E948B1A883C910530F486E20E9466
:10107000270E86E20E94510F82E024C0F80182818F
:10108000882361F010924E010E94731A90934C01D4
:1010900080934B0180E20E94C10F65C080914E0198
:1010A00081110FC080914B0190914C010E948B1ACD
:1010B000883C910530F487E20E94270E87E20E9467
:1010C000510F80E20E94C80F4EC0F8018281811149
:1010D000D9CF80914E018111F4CF80914B01909135
:1010E0004C010E948B1A883C910558F780E20E94BF
:1010F000C80F88E20E94270E88E20E94510F33C079
:101100000E945A18982FF801828120910001309195
:101110000101882379F09A7A81E009F480E08093D4
:101120004801911102C069E201C065E3C9010E9452
:10113000E4190AC080914801811102C069E201C02E
:1011400065E3C9010E94E6190E94A8180CC081E05D
:1011500080934D0180934E01C801DF91CF911F9183
:101160000F910C94F80680E0DF91CF911F910F91C1
:10117000089580E090E008950895272F30E0280F2B
:10118000311D8AE0829FF001839FF00D1124E60F4C
:10119000F11DEE0FFF1FE65BFE4F859194910895C0
:1011A000880F991FFC01E159FE4F85919491089594
:1011B000CF93DF930E94BD080E94940AEC01811531
:1011C000904508F041C0C11580E4D80708F028C157
:1011D000C83ED10510F5C03ED10508F0A1C1C83AFE
:1011E000D10578F4C53AD10508F0A2C0C130D105C7
:1011F00009F496C108F447C1C430D10508F090C184
:1012000042C1CF3BD10508F49EC0C03CD10508F4D3
:101210003AC1CE01805C9109F5C0C11590E2D907B1
:1012200058F4C11521E0D20708F07AC1C03FD105BA
:1012300008F429C1D06574C1C11580E3D80708F04E
:10124000E5C0CE019F70DEC0C11595E5D90708F055
:1012500043C0C11524E5D20708F0F9C0C11582E5E5
:10126000D80708F5C11591E5D90708F0DCC0CE0113
:1012700074E0969587957A95E1F783709C2F93702B
:1012800021E030E002C0220F331F9A95E2F73C685C
:10129000382BCF70C695C69580E2C89FE001112417
:1012A000C22BD32B3DC19E01237033278C2F8695F3
:1012B0008695C115D34508F0BBC0C1E0D0E002C09F
:1012C000CC0FDD1F2A95E2F720E2829FC001112496
:1012D000C82BD92BDC6824C1C11529E5D207A0F49D
:1012E000C11588E5D80708F0B7C0C11596E5D9073C
:1012F00008F0C9C08C2F0E94100B8F71C82FD0E04E
:10130000DC2FCC27D0620CC1C1152AE5D20708F426
:10131000A8C0CE0190568115904208F0B4C08D2F20
:101320008F710E94100BDD27D0628F71D82BF8C00F
:10133000C53AD10509F4AAC0C63AD10509F0A9C039
:10134000C2E8D0E4EDC0C83AD10509F4A5C0C93A55
:10135000D10509F4A4C0CA3AD10509F4A3C0CB3A17
:10136000D10509F4A2C0CC3AD10509F4A1C0CB3B08
:10137000D10509F4A0C0CC3BD10509F49FC0CD3AFA
:10138000D10509F49EC0C03BD10509F49DC0CE3AF9
:10139000D10509F49CC0CF3AD10509F49BC0C13BEB
:1013A000D10509F49AC0C23BD10509F499C0C33BE9
:1013B000D10509F498C0C43BD10509F497C0C53BD9
:1013C000D10509F496C0C63BD10509F495C0C73BC9
:1013D000D10509F494C0C83BD10509F493C0C93BB9
:1013E000D10509F492C0CD3BD10509F491C0CE3BA3
:1013F000D10509F490C0CA3BD10509F48FC0C0E003
:10140000D4E48EC00E94D008EC018AC0CE01992796
:10141000D3FF03C0EC01D86C83C0EC01D06C80C05A
:10142000DF70D06A7DC0DC2FCC27C16FD06A78C056
:10143000C1E0D0E002C0CC0FDD1F2A95E2F720E228
:10144000829FC0011124C82BD92BDA6869C0DC2F18
:10145000CC27C46FD06A64C0DC2FCC27C06FD06AA1
:101460005FC08C2F8F700E94100B94E0D695C795AB
:101470009A95E1F7CF70D0E0DC2FCC27D06A8F703F
:10148000806EC82B4DC0C0E0D0E04AC0C1E8D0E4B7
:1014900047C0C3E8D0E444C0C2EED4E441C0C9EEC2
:1014A000D4E43EC0CAEED4E43BC0C5EBD4E438C0BB
:1014B000C6EBD4E435C0C3EBD4E432C0C4EBD4E40F
:1014C0002FC0C7EBD4E42CC0CCECD4E429C0CDECC5
:1014D000D4E426C0C3E8D5E423C0CAE8D5E420C0DC
:1014E000C2E9D5E41DC0C4E9D5E41AC0C1E2D6E41E
:1014F00017C0C3E2D6E414C0C4E2D6E411C0C5E20A
:10150000D6E40EC0C6E2D6E40BC0C7E2D6E408C0FB
:10151000CFE6D4E405C0C0E7D4E402C0CAE2D6E412
:10152000CE01DF91CF9108958238910549F1B0F451
:101530008133910509F459C048F48932910509F4C1
:101540004FC08A32910509F455C00895853391053D
:1015500009F441C08933910599F00895833E9105BE
:1015600031F138F4803E910591F0823E9105A9F069
:101570000895863E910501F1873E910539F1089560
:101580002091DB0120FD3BC021FD39C008958091F1
:10159000DB0180FF34C089E341C08091DB0182FF21
:1015A00030C08091DB0184FD2EC083EE37C0809176
:1015B000DB0182FD26C0F5CF8091DB0183FF25C0D2
:1015C0008091DB0184FD1FC087EE28C08091DB0184
:1015D00083FD1BC0F5CF8091DB0185FD18C019C0CC
:1015E0008091DB0185FD15C012C08091DB0186FD75
:1015F00012C013C08091DB0186FD0FC00CC080EECD
:101600000DC082EE0BC080E009C086EE07C089E203
:1016100005C085E303C08AE201C081E390E008953C
:101620009091DB0192FF0DC0282F2871283019F40A
:10163000877F846006C0282F2471243011F48B7FAB
:10164000886093FF0DC0282F2871283119F4877EF8
:10165000846106C0282F2471243111F48B7E8861A7
:1016600094FD877E08950C94F5060C94F606CF93AE
:10167000DF9380B380BBA3E1B1E04DE151E061E0D5
:1016800070E08D91E82FE295EF70F0E021A18F706E
:10169000EB0102C0CC0FDD1F8A95E2F7CE019C2F33
:1016A0009095922391A392A1892B82A34A175B075D
:1016B00041F7109252011092510110925001109274
:1016C0004F0181E00E94F40BDF91CF910C9437071A
:1016D000CF93DF93609151017091520110925201AA
:1016E0001092510180B380BB81B381BB80EA8A959F
:1016F000F1F7E3E1F1E020E030E0A1E0B0E041917A
:10170000C42FC295CF70D0E088A1C0915101D09173
:10171000520190E04F7002C0959587954A95E2F787
:1017200080FD08C0CD01022E02C0880F991F0A94C7
:10173000E2F702C080E090E08C2B9D2B9093520149
:10174000809351012F5F3F4F2A303105C1F680B39E
:1017500080BB81B381BB21E0809151019091520106
:101760008617970709F420E041E06FE471E081E516
:1017700091E00E94F50B0E94410781E0DF91CF913B
:101780000895E82FF0E0EE0FFF1FE15BFE4F808130
:10179000918108958FE791E00E944C061F921F925D
:1017A0008AE791E09F938F930E94E50687E791E097
:1017B0000E944C0680914F01909150010E94221985
:1017C0009F938F9381E791E09F938F930E94E5060B
:1017D0008DB79EB708960FB6F8949EBF0FBE8DBF0B
:1017E0008FE691E00C944C060895FF920F931F939F
:1017F000CF93DF93F82E092F162FD72FC42F222334
:1018000049F081E0809355010E94731A909354012E
:1018100080935301809155018823D9F08091530121
:10182000909154010E948B1A069798F0EF2DF02F9B
:10183000A12FBD2F80E090E04C2F50E0841795073A
:1018400034F4219131912D933D930196F7CF10926D
:101850005501DF91CF911F910F91FF9008950C9446
:10186000EE0625982D9A24982C9A83B185FB88271B
:1018700080F91C9902C090E001C092E0892B80930E
:1018800057010895E0915701EE0FEE0FE0935701D5
:1018900043B145FB222720F930E043B144FB8827C0
:1018A00080F990E044FF02C082E090E0822B932B0D
:1018B0008E2B809357018F70E82FF0E0E35EFE4F90
:1018C000908180915601890F80935601843024F0D5
:1018D00060E080E00E942F0C809156018D3F24F43F
:1018E00061E080E00E942F0C80915601837887FF91
:1018F00003C081508C6F8F5F809356010895909341
:101900005D0180935C010895E0915C01F0915D01BF
:10191000309721F00190F081E02D099480E0089546
:10192000EF92FF920F931F93CF93DF93E0915C01AF
:10193000F0915D013097B1F18C010280F381E02DCF
:1019400009958091B90182FF2DC080FF04C08EE906
:1019500091E00E944C06E80118E088E9E82E81E059
:10196000F82E8091B90180FF0BC088811F928F9360
:10197000FF92EF920E94E5060F900F900F900F904C
:10198000115021961111EDCF8091B90180FF0AC04D
:1019900086E991E0DF91CF911F910F91FF90EF9039
:1019A0000C944C06DF91CF911F910F91FF90EF9017
:1019B0000895E0915C01F0915D01309739F022E0EB
:1019C000DC012C930480F581E02D09940895209189
:1019D0005A0130915B012817390771F090935B0130
:1019E00080935A01E0915C01F0915D01309721F004
:1019F0000680F781E02D09940895209158013091D7
:101A000059012817390771F09093590180935801B3
:101A1000E0915C01F0915D01309721F00084F18547
:101A2000E02D0994089585B7806885BF85B78068E3
:101A300085BF089508950C941A0D0C941B0D0C94F9
:101A40001A0D0C941A0D0E94130D0E941F0D0C9478
:101A50001D0D81E008950E946A1A0E94370B0E94B2
:101A6000FF1A0C94210DCF93C82F8091B90182FFEA
:101A70001EC080FF04C087EB91E00E944C0680915D
:101A8000B90180FF0CC01F92CF9382EB91E09F932E
:101A90008F930E94E5060F900F900F900F9080910A
:101AA000B90180FF04C080EB91E00E944C068C2FAE
:101AB000CF910C944707CF92DF92EF92FF920F9352
:101AC0001F93CF93DF93CDB7DEB72A970FB6F89465
:101AD000DEBF0FBECDBF0E94680B0E94290D882378
:101AE00009F446C080E00E94C10B7C01C0905F01F8
:101AF000D0906001C826D926C114D104C9F18091C3
:101B0000B90181FD0E94CA0B80E090E021E030E045
:101B10008901082E02C0000F111F0A94E2F7A601E6
:101B200040235123452B01F18E831F82E022F122B5
:101B300081E0EF2809F480E088870E94731A8160B1
:101B4000782F9A8789874E815F8168858A850E9470
:101B5000F30D80915F019091600108271927109380
:101B6000600100935F0114C001968A30910581F6EF
:101B70008FEF89838A831B820E94731A8160782F7A
:101B80009D838C8349815A816B818D810E94F30DE5
:101B90000E94141D0E94840C90915E018917A1F08F
:101BA0000E94840C80935E012A960FB6F894DEBFE3
:101BB0000FBECDBFDF91CF911F910F91FF90EF909E
:101BC000DF90CF900C94330D2A960FB6F894DEBFB9
:101BD0000FBECDBFDF91CF911F910F91FF90EF907E
:101BE000DF90CF900895CF93DF93CDB7DEB72B97DB
:101BF0000FB6F894DEBF0FBECDBF4F8358876987FD
:101C00007A878B87DE01119686E0FD0111928A9515
:101C1000E9F785E0FE01379601900D928A95E1F78C
:101C200049815A816B817C818D819E810E944715FB
:101C30002B960FB6F894DEBF0FBECDBFDF91CF91CC
:101C40000895FC01808191810E941B180895CF9313
:101C5000882309F424C1C82F8238C1F40E94840C5F
:101C600081FD1DC169E380910001909101010E94F5
:101C7000E4190E94A8182FEF81EE94E021508040D3
:101C80009040E1F700C0000069E319C0833801F516
:101C90000E94840C80FD03C163E580910001909156
:101CA00001010E94E4190E94A8182FEF81EE94E030
:101CB000215080409040E1F700C0000063E5809132
:101CC0000001909101010E94E619CF910C94A8188F
:101CD0008438C1F40E94840C82FDE1C067E48091E5
:101CE0000001909101010E94E4190E94A8182FEFB1
:101CF00081EE94E0215080409040E1F700C0000068
:101D000067E4DDCF8CEF8C0F813A68F48C2F0E9452
:101D100074218111C4C06C2F809100019091010148
:101D20000E94E419D2CF80E28C0F883048F4C7704B
:101D300081E001C0880FCA95EAF70E945D18C5CFFF
:101D40008BE58C0F833078F4C53A29F0C63A31F030
:101D500083E890E005C081E890E002C082E890E06E
:101D6000CF910C94E70C88E58C0F873108F08FC079
:101D7000C83A09F445C0C93A09F445C0CA3A09F459
:101D800045C0CB3A09F445C0CC3A09F445C0CB3B39
:101D900009F445C0CC3B09F445C0CD3A09F445C02F
:101DA000C03B09F445C0CE3A09F445C0CF3A09F426
:101DB00045C0C13B09F445C0C23B09F445C0C33B23
:101DC00009F445C0C43B09F445C0C53B09F445C00E
:101DD000C63B09F445C0C73B09F445C0C83B09F4FC
:101DE00045C0C93B09F445C0CD3B09F445C0CE3BD5
:101DF00009F445C0CA3B09F445C080E090E044C006
:101E000082EE90E041C089EE90E03EC08AEE90E024
:101E10003BC085EB90E038C086EB90E035C083EBAB
:101E200090E032C084EB90E02FC087EB90E02CC0B4
:101E30008CEC90E029C08DEC90E026C083E891E026
:101E400023C08AE891E020C082E991E01DC084E9C6
:101E500091E01AC081E292E017C083E292E014C0E0
:101E600084E292E011C085E292E00EC086E292E048
:101E70000BC087E292E008C08FE690E005C080E7E3
:101E800090E002C08AE292E0CF910C94FD0CC03F3A
:101E900030F08C2F0E949A1BCF910C94871CCF910D
:101EA0000895882309F464C0823879F40E94840C70
:101EB00081FF5EC069E380910001909101010E9461
:101EC000E4190E94A81869E310C08338B1F40E9495
:101ED000840C80FF4DC063E5809100019091010169
:101EE0000E94E4190E94A81863E580910001909176
:101EF00001010E94E6190C94A818843879F40E9414
:101F0000840C82FF35C067E480910001909101014B
:101F10000E94E4190E94A81867E4E7CF9CEF980F8D
:101F2000913A10F4682FE1CF90E2980F983050F476
:101F3000877091E001C0990F8A95EAF7892F0E9476
:101F40006318D9CF9BE5980F933020F480E090E0A0
:101F50000C94E70C98E5980F973120F480E090E01E
:101F60000C94FD0C803F20F00E94021C0C94871CF6
:101F70000895CF93C82F0E94270E8C2FCF910C94D9
:101F8000510F882321F00E945D180C94A818089521
:101F9000882321F00E9463180C94A81808958F924A
:101FA0009F92AF92BF92DF92EF92FF920F931F9397
:101FB000CF93DF937C01D62FC72FFC0105810295BB
:101FC0000F70128111110E947A180E9453188823F1
:101FD00079F0112369F080E28D0F883048F082E0BB
:101FE0000E94F2180E94531891E0D82ED92601C001
:101FF000D12CBC2EB2948FE0B8228B2D90E0FC0146
:10200000E859FF4F0C94B92A8C2F807FCF7088231A
:1020100011F0C295C07F112399F0CC2309F4C3C1FC
:1020200080E28D0F883010F0D11104C08C2F0E94F7
:102030005D1803C08C2F0E946D180E94A818B3C1B0
:102040008D2F0E94510FCC2309F4D2C180E28D0F55
:10205000883010F0D11104C08C2F0E94631803C087
:102060008C2F0E9473180E94A818C2C18C2F807FE9
:10207000CF70803211F0C295C07FDD2319F0D130CE
:10208000C9F022C0112371F0002341F0013031F476
:102090000E948D188C2B0E949518AAC10E948D1841
:1020A0008C2B3AC1002319F0013009F4A1C10E9420
:1020B0009E1818C0112321F0063008F099C10EC0F7
:1020C000053008F095C10EC0112351F0002331F006
:1020D000F701858180FF67C18F7085838C2F1CC1BC
:1020E000011172C18C2F1EC18C2F8695869583702D
:1020F00019F0813061F07CC1112321F08D2F9C2FCC
:10210000937002C080E090E00E94E70C7EC1112332
:1021100021F08D2F9C2F937002C080E090E00E94F0
:10212000FD0C73C11123F9F0D53F51F0D63F71F08A
:10213000D43FA9F48091D5019091D60181600BC064
:102140008091D5019091D601826005C08091D50122
:102150009091D60184609093D6018093D5018D2F04
:102160000E949A1B1EC0D53F51F0D63F71F0D43F5C
:10217000A9F48091D5019091D6018E7F0BC08091FA
:10218000D5019091D6018D7F05C08091D5019091A8
:10219000D6018B7F9093D6018093D5018D2F0E941D
:1021A000021C0E94871C31C18C2F837009F04CC027
:1021B000111127C12D2F229526952770220F220F4E
:1021C0006D2F6F70862F90E0A0E0B0E04C015D01B4
:1021D000022E04C0880C991CAA1CBB1C0A94D2F7BE
:1021E000D4FF12C08FE090E0A0E0B0E004C0880F00
:1021F000991FAA1FBB1F2A95D2F7BC01CD0160957C
:1022000070958095909503C060E070E0CB01C69515
:10221000C695C370C23051F080F4682979298A29A3
:102220009B29C13071F00E949816EBC0682979296A
:102230008A299B290E94AA16E4C00E949816C5010B
:10224000B4010E948616DDC0112319F08C2F817015
:1022500001C08695882309F4D4C02D2F2295269598
:102260002770220F220F6D2F6F70862F90E0A0E055
:10227000B0E04C015D01022E04C0880C991CAA1C20
:10228000BB1C0A94D2F7D4FF12C08FE090E0A0E00C
:10229000B0E004C0880F991FAA1FBB1F2A95D2F770
:1022A000BC01CD01609570958095909503C060E06C
:1022B00070E0CB01C695C695C370C23051F080F472
:1022C000682979298A299B29C13071F00E945D17FC
:1022D00098C0682979298A299B290E946F1791C083
:1022E0000E945D17C501B4010E944B178AC08D2F53
:1022F00090E0FC01E05EF109E531F10508F04FC026
:10230000E858FF4F0C94B92ADF708C2F8F7111237E
:1023100031F00E94E4168D2F0E94C10F69C00E9407
:1023200005178D2F0E94C80F63C0112341F005309F
:1023300008F05EC08C2F8F710E942A1759C006309A
:1023400008F056C0F7CF112339F08C2F8F710E94FF
:10235000E4164EC01123C9F38C2F8F710E9405170C
:1023600047C0112329F08C2F8F710E94CF1640C0D7
:102370000E94CA163DC0112349F0CF718C2F0E94D4
:10238000E41663E08C2F0E94DD1832C081E00E94C9
:10239000F218023068F182E00E94F21829C011237D
:1023A00031F0002391F28D2F0E94270E21C00023CF
:1023B00099F2D93349F4FFEF27EE83E0F150204042
:1023C0008040E1F700C000008D2F0E94510F10C027
:1023D0004C2F4F706D2FC7010E94B9080E94F51550
:1023E00014C04C2F4F706D2FC7010E94BC080DC048
:1023F00098E0B91631F0B91640F086EF8B0D8230B7
:1024000020F40E94840C0E944707DD20E1F00E9426
:102410004F1880FD18C0F70112820E9449180E94CF
:10242000E416C7010E942F120E944918DF91CF9134
:102430001F910F91FF90EF90DF90BF90AF909F9012
:102440008F900C940517DF91CF911F910F91FF9002
:10245000EF90DF90BF90AF909F908F9008950F9373
:102460001F93CF93DF93EC01988189812B813C816D
:10247000232B31F08F3F31F481E09F3F19F403C0EB
:1024800081E001C080E080FD13C0CE010E945907A9
:10249000882371F0688179818A810E9426188C01D5
:1024A0000E9481170E947216B801CE010E94CF0FC0
:1024B000DF91CF911F910F9108950E947A180E9489
:1024C0008A180E94A8180E94A21D0E94871C80E002
:1024D00090E00E94E70C80E090E00C94FD0C80916D
:1024E0000001909101010E94E8190C945D120E9474
:1024F0006A180C946F12E92FE295EF704E2F50E09E
:10250000FA013297EE30F105B0F4E357FF4F0C9427
:10251000B92A803F91F018F4803E68F40EC0843FE1
:1025200051F40BC0803E48F0813F29F406C093FB74
:10253000882780F9089580E0089581E008950E9439
:102540001B180E947B120895CF93DF9300D000D018
:102550001F92CDB7DEB70F900F900F900F900F9096
:10256000DF91CF910895CF93DF9300D000D000D0BA
:10257000CDB7DEB726960FB6F894DEBF0FBECDBF3F
:10258000DF91CF9108951F93CF93DF93C0916201A4
:1025900016E080916301C81799F0D0E01C9FF0010C
:1025A0001D9FF00D1124EC59FE4F40815181628135
:1025B0007381848195810E94B3122196C770E9CFFF
:1025C000DF91CF911F910895409194015091950111
:1025D0006091960170919701809198019091990175
:1025E0000C94B312CF938091990182958F7009F06A
:1025F0005FC080919601882309F45AC080916201DE
:10260000B091630170919401A0919501409197015F
:102610005091980191E07F3F09F090E0692FC6E06A
:102620008B1709F445C04115510521F0AF3F21F04A
:1026300020E003C021E001C0262F90E020FD35C03E
:10264000C89FF001C99FF00D1124EC59FE4F218164
:102650002A132BC02081271328C02281211125C0D5
:10266000238134812417350710F421503109241BAC
:10267000350B283C3105C8F4209199012F70206159
:102680002093990126E0289FF001299FF00D112445
:10269000E759FE4F80818F708061808384E991E0EB
:1026A0000E942F12CF910C94C31201968770B8CF5D
:1026B000CF910895AF92BF92CF92DF92EF92FF92A7
:1026C0000F931F93CF93DF93CDB7DEB761970FB60C
:1026D000F894DEBF0FBECDBF8C0185E0F801DE01AE
:1026E0001D9601900D928A95E1F7D8014C911196B3
:1026F0005C9111971296EC90309194016091950144
:102700008091970190919801009731F06F3F31F4DB
:1027100021E03F3F19F403C021E001C020E0B22FC7
:10272000B170BB2E20FD60C1F801C380D480A090A1
:102730009601AA2009F4EEC020919901C816D90685
:1027400028F0D601A81BB90BCD0104C08095909547
:102750008C0D9D1DFF24F394883C910580F0F12C95
:10276000207F09F09CC07C2DD98AC88A6E2D89896A
:102770000E94A41284E991E00E942F122DC1822FA1
:10278000807F09F054C0561314C0431312C0FE2CAE
:10279000E1100FC02F702061209399010E94E41274
:1027A00084E991E00E942F1280919901F8018583BC
:1027B0005CC1CD2831F05F3F31F481E04F3F19F427
:1027C00003C081E001C080E080FD03C081E08E2570
:1027D00002C080E090E0F82FF170FF2E80FF1CC057
:1027E000809162012091630136E0821709F41AC1D9
:1027F00090E0389FF001399FF00D1124EC59FE4F05
:102800006181561306C06081461303C06281E612DF
:1028100003C001968770E9CFFE2CEE2009F425C194
:1028200080919901816080939901F12C1EC156130A
:1028300009C0431307C0E11005C080919901F80158
:102840008583A4C04D875E878D859E850E949F12DB
:10285000882379F1EE2069F120919901822F8295E8
:102860008F7090E0029774F080919401909195019F
:1028700098878F831986DB86CA862C87CE010796B8
:102880000E942F1286E0F801A4E9B1E001900D92B8
:102890008A95E1F70E94F2120E94E4120DC05617C9
:1028A00071F04D875E878D859E850E949F128111F4
:1028B0001AC0C8010E942F12FF24F394D6C04313FC
:1028C000F0CFE110EECF80919901F8018583C80126
:1028D0000E942F1286E0E4E9F1E0DF011D928A9563
:1028E000E9F7FA2CC2C0EE2021F320919901822F42
:1028F00082958F7090E002972CF2809194019091D4
:1029000095019A8389831B82DD82CC822E83CE013E
:102910000196B6CFC816D90628F0F601E81BF90BC8
:10292000CF0104C0809590958C0D9D1D883C91052C
:1029300048F0F12C7C2DD98AC88A6E2D89890E9495
:10294000A4124AC0FE2CEE2009F4B3CF561333C0B4
:10295000431331C02091990120FD24C0822F82951C
:102960008F70482F50E041155105E1F0D8011596C0
:102970002C9315974F30510549F08F5F982F929502
:10298000907F822F8F70892B15968C93C8010E949F
:102990002F1286E0F801A4E9B1E001900D928A952A
:1029A000E1F73DC086E0F801A4E9B1E001900D92A5
:1029B0008A95E1F75AC04D875E878D859E850E9476
:1029C0009F1281115FCF809199018160809399015D
:1029D000C8010E942F1249C0E4E9F1E086E0DF015E
:1029E0001D928A95E9F71BC0EE2009F462CF4D874E
:1029F0005E878D859E850E949F12F82E882309F49C
:102A000058CF86E0F801A4E9B1E001900D928A95D3
:102A1000E1F784E991E00E94210E0E94F2120E94E7
:102A2000E41223C04D875E878D859E850E941B180A
:102A3000292F22952F70223028F49F7039F08111B0
:102A400005C00BC0243028F49F7049F4805E8830A4
:102A500020F0C8010E942F12BF2CFB2C06C0D80109
:102A600015969C91907F91F7F8CF8F2D61960FB6B8
:102A7000F894DEBF0FBECDBFDF91CF911F910F91B4
:102A8000FF90EF90DF90CF90BF90AF9008951F938D
:102A9000CF93DF93CDB7DEB72C970FB6F894DEBF98
:102AA0000FBECDBF4F83588769877A878B879C87F6
:102AB000CE0107960E945A138823D1F09F81888502
:102AC0002A853B85232B31F08F3F31F481E09F3FF6
:102AD00019F403C081E001C080E080FD47C04F8150
:102AE000588569857A858B859C850E94B3123EC086
:102AF00086E0FE013796DE01119601900D928A95CF
:102B0000E1F7FF81E8856A857B856115710531F004
:102B1000EF3F31F481E0FF3F19F403C081E001C0D1
:102B200080E080FD23C02091630130E0C90101965F
:102B3000877099274091620150E084179507F1F161
:102B4000F983EA837D836C8396E0929FD001939F03
:102B5000B00D1124AC59BE4FFE01319601900D927B
:102B60009A95E1F7809363010E94C31216E0809169
:102B7000620190916301891771F1189FC0011124BE
:102B80008C599E4F0E945A13882329F1E0916201CB
:102B90001E9FF0011124EC59FE4F4081518162814A
:102BA0007381848195810E94B3128091620190E0CB
:102BB00001968770992780936201D9CF0E9477127E
:102BC0001092630110926201E4E9F1E086E0DF0116
:102BD0001D928A95E9F72C960FB6F894DEBF0FBECA
:102BE000CDBFDF91CF911F910895EF92FF920F9388
:102BF0001F93CF93DF938C01892B09F46CC0F12CC8
:102C0000EE24E394E8012196F8018491843740F49E
:102C1000843008F051C0813081F0823019F15BC0FE
:102C2000853709F444C0A8F19CE7980F903708F065
:102C300052C08F770E94510F41C00E5F1F4FFE019F
:102C4000849190E2980F983050F48770FE2D01C067
:102C5000FF0F8A95EAF78F2F0E947D1814C00E94FB
:102C6000270E2DC00E5F1F4FFE01849190E2980F3A
:102C7000983060F48770FE2D01C0FF0F8A95EAF747
:102C80008F2F0E9483180E94A81819C00E94510F0C
:102C900016C00E5F1F4FFE01C491CC2381F08FE957
:102CA0009FE00197F1F700C00000C150F6CF0E5F22
:102CB0001F4FFE01F49003C00E94270E8E018F2D3E
:102CC000882309F49FCFEFE9FFE03197F1F700C0C7
:102CD00000008150F5CFDF91CF911F910F91FF90B0
:102CE000EF900895089508950C9473160C9474163B
:102CF0000E9476166093A8017093A9018093AA019F
:102D00009093AB010C945D120C9478160F931F9363
:102D10000091A8011091A9012091AA013091AB0165
:102D2000602B712B822B932B1F910F910C94781693
:102D30000F931F930091A8011091A9012091AA015E
:102D40003091AB0160237123822393231F910F9154
:102D50000C9478160F931F930091A8011091A9016C
:102D60002091AA013091AB01602771278227932718
:102D70001F910F910C9478160C9473160E94BC1638
:102D80006093A4017093A5018093A6019093A7017D
:102D90000C945D1260E070E0CB010C94BE160F93B2
:102DA0001F9341E050E060E070E08A019B0104C0A5
:102DB000000F111F221F331F8A95D2F7C901B801D6
:102DC0001F910F910C94BE160F931F9341E050E09A
:102DD00060E070E004C0440F551F661F771F8A959E
:102DE000D2F78091A4019091A501A091A601B09184
:102DF000A7018A019B01082B192B2A2B3B2BC90108
:102E0000B8011F910F910C94BE160F931F9341E0D0
:102E100050E060E070E004C0440F551F661F771F4C
:102E20008A95D2F740955095609570958091A40150
:102E30009091A501A091A601B091A7018A019B01E3
:102E4000082319232A233B23C901B8011F910F919D
:102E50000C94BE160F931F9341E050E060E070E0C9
:102E600004C0440F551F661F771F8A95D2F78091C3
:102E7000A4019091A501A091A601B091A7018A019A
:102E80009B01082719272A273B27C901B8011F9151
:102E90000F910C94BE160F931F930091A4011091F3
:102EA000A5012091A6013091A701602B712B822BE7
:102EB000932B1F910F910C94BE160F931F930091AB
:102EC000A4011091A5012091A6013091A7016023D2
:102ED0007123822393231F910F910C94BE160F939D
:102EE0001F930091A4011091A5012091A60130919A
:102EF000A70160277127822793271F910F910C94B8
:102F0000BE1608952AE0929F800D1124E82FE695C1
:102F1000E695E695877051E001C0550F8A95EAF76E
:102F200085E0E89FF0011124E656FE4F20E030E0F6
:102F300070E04081CB01022E02C0969587950A94DD
:102F4000E2F78170819584278523842781932F5F01
:102F50003F4F2530310569F708952AE0929F800D93
:102F60001124682F669566956695982F977085E071
:102F7000689FB001112440E050E080E0FB01E40FC5
:102F8000F51FE656FE4F208130E0092E02C036952F
:102F900027950A94E2F721703327042E01C0220FEF
:102FA0000A94EAF7822B4F5F5F4F4530510531F7A6
:102FB0000895BF92CF92DF92EF92FF920F931F93EB
:102FC000CF93DF938C01C090A401D090A501E09035
:102FD000A601F090A7018091A8019091A901A0916C
:102FE000AA01B091AB01C82AD92AEA2AFB2ACFE16B
:102FF000D0E0D701C6010C2E04C0B695A7959795D1
:1030000087950A94D2F780FD04C0219790F7B12CE0
:1030100007C0BC2EB8018C2F0E94D8080197A9F3D5
:103020008B2DDF91CF911F910F91FF90EF90DF904B
:10303000CF90BF900895CF93DF93EC010E94D917F2
:10304000BE010E94D808DF91CF9108951F93CF93BE
:10305000DF93EB0190916101992321F0CB010E9454
:103060001B1813C0882349F0CB010E94D917182FD1
:10307000682FCE010E94821704C0CB010E94AD17B9
:10308000182FBE01812F0E94D808DF91CF911F9188
:1030900008958091AC0185958595859508958091D9
:1030A000AC01877008959091AC01977081E009F4AC
:1030B00080E008958091B80108959091B801892B1E
:1030C0008093B801089580959091B80189238093E9
:1030D000B80108951092B80108959091B701892B15
:1030E0008093B701089580959091B70189238093CB
:1030F000B70108951092B70108959091B601892BF8
:103100008093B601089580959091B60189238093AC
:10311000B60108951092B60108958091AD01089509
:1031200008950C9490180C9491189091AD019817F3
:1031300021F08093AD010C94931808958091AD0116
:10314000882329F01092AD0180E00C949318089523
:10315000E0910001F09101018091B8018083E0913C
:103160000001F091010190818091B701892B80834A
:10317000E0910001F091010190818091B601892BCD
:1031800080838091AD01882381F0E0910001F0916E
:1031900001019081892B8083809100019091010130
:1031A0000E94B11981110E949E1880910001909196
:1031B00001010C94900C0C94901898E0899F900158
:1031C0001124262B2093AC010E94E4168091AC01BF
:1031D0008595859585950C94DB181092AC0180E05F
:1031E0000C94DB182091AC01809582238093AC0174
:1031F000982F977079F430E0482F082E000C550B6B
:103200002417350739F08595859585950E94051712
:103210000C94ED180895909347018093460108950A
:103220008295982F937344E0949F900111248C7C95
:1032300086958695282B822F8575880F2A7A269564
:10324000822B0895CF93DF93D92F0E941019C82F96
:103250008D2F0E9410192C2F30E0322F2227A90128
:10326000482BCA01DF91CF91089580E090E00E9441
:10327000DB2A21E08D3E9E4F09F020E0822F089549
:1032800082E090E00C94D32A83E090E00C94D32A5F
:1032900084E090E00C94D32A682F84E090E00C94B2
:1032A000E12AAB01BC018FE090E00C94F32AAB0162
:1032B000BC0183E190E00C94F32A60E070E0CB0164
:1032C0000C94571960E070E0CB010E9451190C94E6
:1032D0005D196DEE7EEF80E090E00E94FF2A60E0D5
:1032E00082E090E00E94E12A60E083E090E00E94AA
:1032F000E12A1092A8011092A9011092AA0110923D
:10330000AB0160E084E090E00E94E12A60E085E0AB
:1033100090E00E94E12A60E086E090E00E94E12ACD
:103320006FEF87E090E00E94E12A40E050E0BA01B0
:1033300088E090E00E94F32A60E08DE090E00E9437
:10334000E12A40E050E0BA0188E190E00E94F32ACF
:1033500060E087E190E00E94E12A0C9462190C94ED
:103360006919FC01329697E080E0915029F0219193
:103370002223D9F38F5FF9CF08959C01FC01329687
:103380009FEF80E04191461789F09F3F19F441116A
:1033900001C0982F8F5F8630A9F79F3F39F0F90160
:1033A000E90FF11D97FDFA956283089508959C0138
:1033B0002A5F3F4FFC014281461301C012820196F1
:1033C00082179307B9F708950C94BD190C94D71977
:1033D000029626E0FC0111922A95E9F708950895D6
:1033E0000C94EF190C94EF190E94F2190E94680BCB
:1033F0000E94F01980E00E94C10B21E0892B09F4A2
:1034000020E0822F08950C94EF190C94031A0E9467
:10341000051A8091E101843049F11092BA0120E44B
:1034200088E190E00FB6F894A895809360000FBEF5
:103430002093600080E00E9447070E94051A83B72E
:10344000817F846083BF83B7816083BF78948895D0
:1034500083B78E7F83BF0FB6F894A89580916000E4
:10346000886180936000109260000FBE08950C94F4
:10347000EF190E9477120E94840C0E9447070C9457
:10348000371A1F920F920FB60F9211248F939F93AA
:10349000AF93BF938091BA01811113C08091D7017E
:1034A0009091D801A091D901B091DA014196A11D66
:1034B000B11D8093D7019093D801A093D901B09307
:1034C000DA01BF91AF919F918F910F900FBE0F9036
:1034D0001F90189582E084BD93E095BD9AEF97BD4B
:1034E00080936E0008952FB7F8948091D701909142
:1034F000D801A091D901B091DA012FBF08952FB75B
:10350000F8946091D7017091D8018091D901909180
:10351000DA012FBF0895CF92DF92EF92FF920F93BF
:103520001F932FB7F8944091D7015091D801609123
:10353000D9017091DA012FBF6A017B01EE24FF24CB
:103540008C0120E030E0C016D106E206F30610F44C
:10355000415051099A01281B390BC9011F910F9144
:10356000FF90EF90DF90CF90089578941F920F9284
:103570000FB60F9211248F939F93AF93BF938091B7
:10358000D7019091D801A091D901B091DA010196AB
:10359000A11DB11D8093D7019093D801A093D901AB
:1035A000B093DA01BF91AF919F918F910F900FBEB1
:1035B0000F901F90189581E08093E00080E2809347
:1035C000D8001092C9008FE19EE40197F1F700C086
:1035D000000087E090EBDC018093EA019093EB011F
:1035E000A093EC01B093ED019CE088E10FB6F89454
:1035F000A895809360000FBE90936000FFCF0E945B
:103600003519811102C00E94AF190E9440198093A0
:10361000B9010E94481990E09093DC018093DB018E
:103620000E944419682F70E080E090E00C948416AA
:103630008091BE0180FF0BC06091050185E0689F0D
:10364000B001112475956795759567952BC081FF1D
:1036500009C06091050185E0689FB001112475954E
:10366000679520C082FF07C06091050185E0689FD3
:10367000B001112417C09091BD019923D1F0609140
:103680000401961788F72091050185E0289F900195
:103690001124929FA001939F500D112470E0CA0144
:1036A0000E94A52A6038710540F46115710519F46E
:1036B00006C065E070E0862F08958FE7089581E0E9
:1036C00008958091BE0180FF08C06091030170E001
:1036D000759567957595679521C081FF06C06091C6
:1036E000030170E07595679519C082FF04C0609171
:1036F000030170E010C09091BD01992399F0609191
:1037000002019617A0F780910301899FC00111243F
:1037100070E00E94A52A6038710540F461157105BA
:1037200019F406C061E070E0862F08958FE70895D0
:1037300081E00895803F21F40E94181B819504C008
:10374000813F29F40E94181B8093C2010895823F93
:1037500021F40E94181B819504C0833F29F40E9424
:10376000181B8093C1010895893F19F40E94611BC1
:1037700005C08A3F31F40E94611B81958093C3018B
:1037800008958B3F21F40E94611B819504C08C3FFA
:1037900029F40E94611B8093C4010895843F21F4A1
:1037A0008091C001816017C0853F21F48091C001E4
:1037B000826011C0863F21F48091C00184600BC0FB
:1037C000873F21F48091C001886005C0883F31F4B3
:1037D0008091C00180618093C00108958D3F21F4E4
:1037E0008091BE0181600BC08E3F21F48091BE01AB
:1037F000826005C08F3F29F48091BE018460809370
:10380000BE010895803F39F48091C20187FF6CC0EA
:103810001092C20169C0813F29F48091C20118163B
:10382000BCF362C09091C101823F29F497FF5CC054
:103830001092C10159C0833F19F41916CCF354C03A
:10384000893F41F48091C30118160CF04DC01092CD
:10385000C3014AC08A3F29F48091C30187FF44C055
:10386000F6CF8B3F39F48091C40187FF3DC01092A1
:10387000C4013AC08C3F29F48091C4011816BCF3EE
:1038800033C0843F21F48091C0018E7F17C0853FF3
:1038900021F48091C0018D7F11C0863F21F4809179
:1038A000C0018B7F0BC0873F21F48091C001877FCF
:1038B00005C0883F31F48091C0018F7E8093C001A4
:1038C00013C08D3F21F48091BE018E7F0BC08E3FCF
:1038D00021F48091BE018D7F05C08F3F29F4809136
:1038E000BE018B7F8093BE018091C10181110EC00A
:1038F0008091C20181110AC08091C301811106C06B
:103900008091C401811102C01092BD01089580917F
:10391000B90183FF7EC081EF91E00E944C06809147
:10392000C0011F928F938CEE91E09F938F930E9422
:10393000E5068AEE91E00E944C068091C101282F95
:10394000082E000C330B3F938F9387EE91E09F93EB
:103950008F930E94E50685EE91E00E944C068091CF
:10396000C201282F082E000C330B3F938F9382EE59
:1039700091E09F938F930E94E50680EE91E00E9474
:103980004C068091C301282F082E000C330B3F9367
:103990008F938DED91E09F938F930E94E5068BEDC1
:1039A00091E00E944C068091C401282F082E000C43
:1039B000330B3F938F9388ED91E09F938F930E94F9
:1039C000E50685ED91E00E944C068091BD011F92B5
:1039D0008F9382ED91E09F938F930E94E50680ED97
:1039E00091E00E944C068091BE011F928F938DEC56
:1039F00091E09F938F930E94E5068AEC91E00E94EC
:103A00004C068DB79EB74C960FB6F8949EBF0FBE6E
:103A10008DBF8FEB91E00E94D90C0E94731A909396
:103A2000BC018093BB0108951F93CF93DF938091D6
:103A3000BB019091BC010E948B1AAC019091BD0119
:103A4000992321F02091060130E006C02091070162
:103A50008AE0289F900111244217530708F46EC092
:103A60008091C101C091C201D091C3011091C401E4
:103A7000811107C0C1115EC0D1115CC011115AC0C3
:103A80005DC09F3F19F09F5F9093BD01181624F40D
:103A90000E94181B8093C1018091C10187FF05C05E
:103AA0000E94181B81958093C1011C1624F40E946A
:103AB000181B8093C2018091C20187FF05C00E943C
:103AC000181B81958093C2014091C101442379F074
:103AD0003091C201332359F025EB4203A001112498
:103AE0005093C1013203C00111249093C2011D16ED
:103AF00024F40E94611B8093C3018091C30187FF5E
:103B000005C00E94611B81958093C301111624F4A6
:103B10000E94611B8093C4018091C40187FF05C08E
:103B20000E94611B81958093C401DF91CF911F9109
:103B30000C94871C9F3F09F0A6CFB7CFDF91CF91A0
:103B40001F910895EFEBF1E086E0DF011D928A9569
:103B5000E9F71092BD011092BE01089584E194E04E
:103B60000E944C061F9281E08F931F9285E08F93F5
:103B700086EC93E09F938F930E94E5060F900F9041
:103B80000F900F900F900F9008958330E9F128F473
:103B9000813061F0823009F10895853009F462C006
:103BA00008F449C0863009F474C008958091070173
:103BB000262F30E0280F311D2F3F310524F4680FE8
:103BC0006093070103C08FEF809307018091070185
:103BD0001F928F938FEF92E072C080910601262F83
:103BE00030E0280F311D2F3F310524F4680F60931A
:103BF000060103C08FEF80930601809106011F929A
:103C00008F938DEE92E05BC080910501262F30E00E
:103C1000280F311D2F3F310524F4680F60930501F3
:103C200003C08FEF80930501809105011F928F9350
:103C30008AED92E044C080910401262F30E0280FE5
:103C4000311D2F3F310524F4680F6093040103C038
:103C50008FEF80930401809104011F928F9385EC74
:103C600092E02DC080910301262F30E0280F311DF6
:103C70002F3F310524F4680F6093030103C08FEFD9
:103C800080930301809103011F928F938CEA92E04D
:103C900016C080910201262F30E0280F311D2F3FE2
:103CA000310524F4680F6093020103C08FEF809305
:103CB0000201809102011F928F9381E992E09F930C
:103CC0008F930E94E5060F900F900F900F9008952C
:103CD000833081F128F4813059F08230D1F0089599
:103CE000853009F449C0B8F1863009F456C008950A
:103CF00080910701681720F4861B8093070102C09A
:103D000010920701809107011F928F9382E892E041
:103D100054C080910601681720F4861B8093060129
:103D200002C010920601809106011F928F9380E7D6
:103D300092E043C080910501681720F4861B8093B0
:103D4000050102C010920501809105011F928F9319
:103D50008DE592E032C080910401681720F4861B43
:103D60008093040102C010920401809104011F920B
:103D70008F9388E492E021C080910301681720F4BA
:103D8000861B8093030102C01092030180910301FE
:103D90001F928F938FE292E010C08091020168170A
:103DA00020F4861B8093020102C0109202018091D0
:103DB00002011F928F9384E192E09F938F930E9460
:103DC000E5060F900F900F900F900895CF93C82F96
:103DD0001F928F9389E195E09F938F930E94E50650
:103DE00081E090E0A0E0B0E0BC01CD0104C0660F2E
:103DF000771F881F991FCA95D2F70E9484160F90CB
:103E00000F900F900F90CF910C947712CF938B312E
:103E100009F4D1C108F067C18B3009F48AC108F0F8
:103E20003DC1863009F488C120F4853009F496C17B
:103E300044C2873009F4A4C1883009F03EC28DE243
:103E40009AE00E944C068EE799E00E944C060E9480
:103E500044191F928F938BE799E09F938F930E9451
:103E6000E50689E799E00E944C060E944019C82F98
:103E700086E699E00E944C061F92CF9381E699E076
:103E80009F938F930E94E5068FE599E00E944C0670
:103E900085E599E00E944C068C2F81701F928F93CC
:103EA00082E599E09F938F930E94E50680E599E073
:103EB0000E944C0686E499E00E944C06C1FB8827CC
:103EC00080F91F928F9383E499E09F938F930E94D0
:103ED000E50681E499E00E944C0685E399E00E94A2
:103EE0004C06C2FB882780F91F928F9382E399E0EA
:103EF0009F938F930E94E50680E399E00E944C0611
:103F000087E299E00E944C06C3FBCC27C0F91F92C0
:103F1000CF9384E299E09F938F930E94E50682E21B
:103F200099E00E944C060E944819C82F8EE099E043
:103F30000E944C061F92CF9389E099E09F938F9344
:103F40000E94E50687E099E00E944C068EEE98E01C
:103F50000E944C068C2F81701F928F938BEE98E0FD
:103F60009F938F930E94E5068DB79EB780960FB6FC
:103F7000F8949EBF0FBE8DBF89EE98E00E944C065C
:103F800082ED98E00E944C06C1FB882780F91F92C1
:103F90008F938FEC98E09F938F930E94E5068DECB2
:103FA00098E00E944C068BEB98E00E944C06C2FB06
:103FB000882780F91F928F9388EB98E09F938F93C7
:103FC0000E94E50686EB98E00E944C0684EA98E0A1
:103FD0000E944C06C3FB882780F91F928F9381EAC9
:103FE00098E09F938F930E94E5068FE998E00E94E6
:103FF0004C0685E998E00E944C06C4FB882780F9AE
:104000001F928F9382E998E09F938F930E94E50619
:1040100080E998E00E944C068EE798E00E944C06EA
:10402000C5FB882780F91F928F938BE798E09F93B9
:104030008F930E94E50689E798E00E944C068DE583
:1040400098E00E944C06C6FB882780F91F928F9348
:104050008AE598E09F938F930E94E50688E598E0B3
:104060000E944C0680E598E00E944C06C7FBCC27D6
:10407000C0F91F92CF938DE498E09F938F930E9495
:10408000E5068BE498E00E944C068DB79EB74C96EF
:104090000FB6F8949EBF0FBE8DBF49C0803109F4A2
:1040A000B4C020F48E3009F49AC007C1863109F4F7
:1040B000C7C0893109F001C182E796E00E944C0631
:1040C00089E596E00E944C068DE196E00E944C0640
:1040D00088EE95E00E944C0682EB95E00E944C062B
:1040E00087E895E08FC08A32E1F060F4873209F406
:1040F000E0C028F48E3108F4E0C08D51DBC0893275
:1041000069F1DBC0833448F48A3308F0D0C08533CA
:1041100009F4CFC0883369F0D0C0833409F4C9C032
:10412000CCC08CE19AE00E944C060E94AF19C1E01D
:10413000C9C088EA96E066C08091B901817F8E7F10
:104140008093B90181E896E00E944C0688E19AE0EC
:104150000E944C0681E08093C601E9CF0E9477124D
:104160008CEF99E00E944C069FEF23ED80E3915085
:1041700020408040E1F700C000000E94DB1AD7CF4A
:104180008091B901C82FC095C170C0FB80F98093A0
:10419000B901CC2329F080EF99E00E944C0692C02F
:1041A00083EE99E00E944C068091B901897F877F58
:1041B0008093B901BCCF9091B90191FBCC27C0F994
:1041C00081E0C827892FC0FB81F98093B901CC23F6
:1041D00019F086ED99E029C088EC99E013C0909120
:1041E000B90192FBCC27C0F981E0C827892FC0FB19
:1041F00082F98093B901CC2319F089EB99E015C0BD
:1042000089EA99E00E944C0692CF9091B90193FB04
:10421000CC27C0F981E0C827892FC0FB83F98093A0
:10422000B901CC2351F08DE999E00E944C068091B0
:10423000B90181608093B90145C080E999E0E2CF7E
:1042400089E795E00E944C060E94840C1F928F9390
:104250008FE595E09F938F930E94E5068091120170
:104260001F928F9388E495E09F938F930E94E506B9
:104270008091D3011F928F9385E395E09F938F9355
:104280000E94E5060E947F1A9F938F937F936F93FE
:104290008EE195E09F938F930E94E5068DB79EB7C0
:1042A00042960FB6F8949EBF0FBE8DBF40CF895384
:1042B00001C080E00E94E61E3ACF8EE899E00E949D
:1042C0004C06C0E08C2FCF91089580E008950C94A7
:1042D00065218E518A3030F4E82FF0E0E35DFE4F27
:1042E0008081089580E00895CF93C82F8091C60102
:1042F000813059F020F0823009F445C039C10E9464
:104300005A18823209F036C104C00E945A1882320B
:1043100061F48C2F0E946721811104C08C2F0E94B0
:10432000061F2FC081E090E02CC08C2F0E946521D9
:10433000811126C0C431E1F070F4CB3081F0C0317E
:10434000D1F40E94AE1D81E195E00E944C0682E00E
:104350008093C60115C0C93259F0C83361F481E8B1
:1043600096E00E944C0685E195E00E944C0608C04C
:104370001092C60101C18FE095E00E944C06FCC07E
:1043800081E08170FBC0C43228F5CE3108F0C1C095
:10439000CB30A1F1D0F4C73009F0D0C08EE18093CA
:1043A000070182E3809306018AE08093050184E19E
:1043B0008093040188E08093030188E280930201E6
:1043C00085EB93E00E944C06BCC0C33149F1C43177
:1043D000C1F0B4C0CB3409F4A6C028F4C93289F0C6
:1043E000C83361F0ABC0C13509F49BC0C23509F4D4
:1043F00096C0CE3409F0A2C06AE09BC00E94AE1DF8
:10440000A0C08091C501882319F01092C50199C000
:1044100082EC93E00E944C0681E08093C601AEC01E
:104420008CE993E00E944C068AE893E00E944C06D7
:10443000809107011F928F9387E893E09F938F935A
:104440000E94E50685E893E00E944C0683E793E02E
:104450000E944C06809106011F928F9380E793E0A3
:104460009F938F930E94E5068EE693E00E944C0690
:104470008FE593E00E944C06809105011F928F9377
:104480008CE593E09F938F930E94E5068AE593E085
:104490000E944C0689E493E00E944C06809104013E
:1044A0001F928F9386E493E09F938F930E94E5067B
:1044B00084E493E00E944C068FE293E00E944C0655
:1044C000809103011F928F938CE293E09F938F93CF
:1044D0000E94E5068AE293E00E944C0683E193E0A5
:1044E0000E944C06809102011F928F9380E193E01D
:1044F0009F938F930E94E5068EE093E00E944C0606
:104500008DB79EB748960FB6F8949EBF0FBE8DBF6D
:1045100018C08C2F0E9469218093C50112C061E0F0
:1045200003C061E006C06AE08091C5010E94C51D1C
:1045300008C08091C5010E94681E03C083EB93E010
:1045400013C08091C501882369F01F928F938DEA73
:1045500093E09F938F930E94E5060F900F900F902A
:104560000F9004C08AEA93E00E944C0681E006C0E6
:104570001092C60180E002C080E003CFCF91089581
:104580008091D20108959FB7F8941092C9019FBFFE
:104590009091E101943009F057C09091E9009F702B
:1045A0003091EC00232F217030FD20E8922B23E086
:1045B0002093E9002091EB0020FF43C02091EE0002
:1045C00027FF3FC02091C701222321F02091E8005E
:1045D00025FF37C01092C70126E03091E80035FD75
:1045E00015C03091E101343061F53091EB0035FDBB
:1045F00028C0215021F481E08093C70122C0EFE957
:10460000FFE03197F1F700C00000E7CF8093F100A1
:104610008091E80085FD0AC08091E80080FFFCCF12
:104620008091E8008E778093E80006C08FB7F894F9
:1046300021E02093C9018FBF9F709093E90080E033
:1046400008959F709093E9008FEF08950F931F9343
:10465000CF93DF9300D01F92CDB7DEB78C010E94BD
:10466000DF25823011F0843021F584E089831B83BB
:104670000A8382E08093E9008FEF9091E8008150F7
:1046800095FD06C095ED9A95F1F700008111F5CFE3
:104690008091E80085FF0DC040E050E063E070E0ED
:1046A000CE0101960E94FC258091E8008E778093D0
:1046B000E8000F900F900F90DF91CF911F910F9115
:1046C0000895CF93DF9300D01F92CDB7DEB720912E
:1046D000E101243031F523E02983805891099B833F
:1046E0008A8382E08093E9008FEF9091E800815007
:1046F00095FD06C095ED9A95F1F700008111F5CF73
:104700008091E80085FF0DC040E050E063E070E07C
:10471000CE0101960E94FC258091E8008E7780935F
:10472000E8000F900F900F90DF91CF910895CF93F5
:10473000DF93EC010E94DF25823011F08430F9F420
:1047400082E08093E9008FEF9091E800815095FD21
:1047500006C095ED9A95F1F700008111F5CF809193
:10476000E80085FF0CC040E050E066E070E0CE015C
:104770000E94FC258091E8008E778093E800DF910D
:10478000CF910895CF93DF93EC010E94DF25823013
:1047900011F0843039F581E08093E9008FEF90913A
:1047A000E800815095FD06C095ED9A95F1F700005F
:1047B0008111F5CF8091E80085FF14C040E050E002
:1047C00068E070E0CE010E94FC258091E8008E77C1
:1047D0008093E80088E0FE01AAECB1E001900D9220
:1047E0008A95E1F7DF91CF9108958DE59AE00E94D7
:1047F0004C068091E001811109C00E948D270E9422
:10480000EA278091E20084608093E200089589E5C0
:104810009AE00E944C061092E001089585E59AE026
:104820000C944C0681E59AE00C944C068DE49AE0D9
:104830000E944C060C94391A2091C8012F5F822FD8
:1048400062E30E94992A992319F02093C8010895E0
:104850001092C8018091C901882371F18091E10112
:10486000843041F58091E9008F702091EC00922F07
:10487000917020FD90E8892B93E09093E90090914E
:10488000EB0090FF14C09091EE0097FF10C0909144
:10489000E80095FF03C01092F100F9CF9091E80075
:1048A00090FF05C09091E8009E779093E8008F708C
:1048B0008093E9001092C901089542E061EC81E023
:1048C0000E94062742E261EC82E00E94062742E253
:1048D00061EC83E00C9406278091E301833009F4B6
:1048E00060C030F4813071F0823009F499C00895CD
:1048F0008A3009F485C08B3009F46BC0893009F027
:10490000A7C020C08091E201813A09F0A1C0809146
:10491000E800877F8093E8008091E6019091E701AD
:10492000892B21F468E08AEC91E003C060E080E02C
:1049300090E070E00E9447268091E8008B7780939A
:10494000E80008958091E201813209F081C08091F0
:10495000E6019091E701029708F07AC08091E800A3
:10496000877F8093E8008091E80082FD05C08091F8
:10497000E1018111F8CF6CC02091F3008091F20029
:1049800090E0922B029729F48091F1008B7F813087
:1049900021F48091F1008093D2018091E8008B771F
:1049A00053C08091E201813A09F052C08091E60142
:1049B0009091E701892B09F04BC08091E800877F37
:1049C0008093E8008091E80080FFFCCF8091120185
:1049D00036C08091E2018132D9F58091E601909153
:1049E000E701892BA9F58091E800877F8093E80093
:1049F0000E943B278091E401809312010C9477126E
:104A00008091E201813221F58091E800877F8093D7
:104A1000E8000E943B278091E5018093D30108952F
:104A20008091E201813AA1F48091E800877F809330
:104A3000E8008091E80080FFFCCF8091D301809353
:104A4000F1008091E8008E778093E8000C943B277A
:104A5000089584B7877F84BF0FB6F894A895809196
:104A60006000886180936000109260000FBE80E853
:104A700080936100109261000E94230D0E948D2797
:104A80000E94EA278091E20084608093E20083EC38
:104A900092E20E940B1978940E947E2A0E942B0DAC
:104AA00088E091E00E947F0C8CE39AE00E944C0623
:104AB0008091E101853089F488E39AE00E944C06F8
:104AC0000E94071A8091DF01882391F30E94F41954
:104AD000882371F30E94E625EBCF0E945B0DE8CF9F
:104AE0000C947225292F332723303105C9F060F447
:104AF0002130310581F02230310509F047C08BE5C6
:104B000090E029E93AE046C02132310511F1223224
:104B1000310561F13BC082E190E024EF3AE03AC018
:104B200099278130910561F040F08230910559F06C
:104B3000039761F5E1E6FAE008C0E5E9FAE005C0AF
:104B4000E3E7FAE002C0E7E6FAE0849190E09F0133
:104B500021C063307105D0F4660F771FFB01E05C64
:104B6000FE4F2081318189E090E014C063307105EF
:104B700068F4FB01EE0FFF1FE65CFE4F20813181E0
:104B8000FB01E95CFE4F808190E004C080E090E092
:104B900020E030E0FA013183208308950895CF9317
:104BA000C82F0E94CE25C093D401CF910895809143
:104BB000E101843011F081E0089582E00895809150
:104BC000D401811102C00C94D725089580E189BDDC
:104BD00082E189BD09B400FEFDCF8091D8008F7DB0
:104BE0008093D8008091E00082608093E000809103
:104BF000E00081FDFCCF0895CF92DF92EF92FF920B
:104C00000F931F93CF93DF93EC018B017A010E94E6
:104C10005A27811133C0E114F10439F0F701808182
:104C20009181081B190BC80FD91FC12CD12C01155C
:104C3000110519F18091E80085FD16C08091E8000A
:104C40008E778093E800E114F10449F0F701808148
:104C50009181C80ED91ED182C08285E00FC00E940A
:104C60005A27882321F30AC089918093F1000150CB
:104C70001109FFEFCF1ADF0ADACF80E0DF91CF9181
:104C80001F910F91FF90EF90DF90CF9008952091AA
:104C9000E8013091E9012617370748F061157105E1
:104CA00039F42091E8002E772093E80001C0B90183
:104CB000FC0120E06115710579F18091E101882303
:104CC000F1F18530F1F18091E80083FD3CC08091E5
:104CD000E80082FD2EC08091E80080FFEBCF20919C
:104CE000F3008091F20090E0922B6115710551F074
:104CF0008830910538F421912093F10061507109B9
:104D00000196F3CF21E0089709F020E08091E800B8
:104D10008E778093E800CECF2111CFCF0AC080914B
:104D2000E101882361F0853061F08091E80083FD26
:104D30000AC08091E80082FFF2CF80E0089582E00F
:104D4000089583E0089581E008952091E80130916D
:104D5000E9012617370748F06115710539F42091EC
:104D6000E8002E772093E80001C0B901FC0120E0A3
:104D70006115710591F18091E101882309F440C02A
:104D8000853009F43FC08091E80083FD3DC08091EB
:104D9000E80082FD2FC08091E80080FFE9CF2091DC
:104DA000F3008091F20090E0922B6115710559F0AB
:104DB0008830910540F424912093F10031966150A0
:104DC00071090196F2CF21E0089709F020E0809167
:104DD000E8008E778093E800CBCF2111CCCF0AC0BA
:104DE0008091E101882361F0853061F08091E800D5
:104DF00083FD0AC08091E80082FFF2CF80E0089531
:104E000082E0089583E0089581E00895982F973017
:104E100068F59093E900981739F07091EC002091B3
:104E2000ED005091F00003C0242F762F50E021FDBB
:104E300002C09F5FECCF3091EB003E7F3093EB00E0
:104E40003091ED003D7F3093ED003091EB0031600B
:104E50003093EB007093EC002093ED005093F00042
:104E60002091EE0027FDE5CF80E008958F708093BC
:104E7000E90081E008958091E20187FF11C08091EF
:104E8000E80082FD05C08091E1018111F8CF11C0D9
:104E90008091E8008B770BC08091E101882349F075
:104EA0008091E80080FFF8CF8091E8008E778093B2
:104EB000E80008952091E4003091E50095E64091E6
:104EC000EC00842F817040FF23C08091E80080FDBA
:104ED0001DC08091E101882399F0853099F080917F
:104EE000EB0085FD11C04091E4005091E5002417CE
:104EF000350729F3915011F09A01E1CF84E008952C
:104F000082E0089583E0089581E0089580E00895A7
:104F10004091E80042FFDDCF08950E94FB270E94E8
:104F20000328E0EEF0E0808181608083E8EDF0E02E
:104F300080818F77808319BCA7EDB0E08C918E7F44
:104F40008C9380818F7E80831092E00108950F936F
:104F50001F93CF93DF930E94FB270E940328C8ED85
:104F6000D0E088818F778883888180688883888172
:104F70008F7D888319BC1092E1011092DD0110929F
:104F8000DF011092DE0100EE10E0F80180818B7FDE
:104F9000808388818160888342E060E080E00E94B5
:104FA0000627E1EEF0E080818E7F8083E2EEF0E084
:104FB000808181608083808188608083F801808126
:104FC0008E7F8083888180618883DF91CF911F915C
:104FD0000F910895E8EDF0E080818F7E8083E7ED0A
:104FE000F0E080818160808384E082BF81E08093F3
:104FF000E0010C94A727E8EDF0E080818E7F8083AC
:105000001092E20008951092DA001092E1000895E3
:105010001F920F920FB60F9211242F933F934F932D
:105020005F936F937F938F939F93AF93BF93EF9310
:10503000FF938091E10082FF0BC08091E20082FF2C
:1050400007C08091E1008B7F8093E1000E941C24C7
:105050008091DA0080FF1FC08091D80080FF1BC0C4
:105060008091DA008E7F8093DA008091D90080FFF2
:105070000DC080E189BD82E189BD09B400FEFDCF8C
:1050800081E08093E1010E94F52305C019BC1092D4
:10509000E1010E9407248091E10080FF19C0809106
:1050A000E20080FF15C08091E2008E7F8093E200D5
:1050B0008091E20080618093E2008091D80080625C
:1050C0008093D80019BC85E08093E1010E941224EE
:1050D0008091E10084FF30C08091E20084FF2CC009
:1050E00080E189BD82E189BD09B400FEFDCF8091D8
:1050F000D8008F7D8093D8008091E1008F7E8093CF
:10510000E1008091E2008F7E8093E2008091E200D6
:1051100081608093E2008091DD01882311F084E0BA
:1051200007C08091E30087FD02C081E001C083E0F9
:105130008093E1010E9416248091E10083FF29C041
:105140008091E20083FF25C08091E100877F8093FA
:10515000E10082E08093E1011092DD018091E100A5
:105160008E7F8093E1008091E2008E7F8093E20049
:105170008091E20080618093E20042E060E080E0A4
:105180000E9406278091F00088608093F0000E94C2
:105190000E24FF91EF91BF91AF919F918F917F91DD
:1051A0006F915F914F913F912F910F900FBE0F9094
:1051B0001F9018951F920F920FB60F9211242F93E4
:1051C0003F934F935F936F937F938F939F93AF938F
:1051D000BF93CF93DF93EF93FF93C091E900CF701C
:1051E0008091EC00D82FD17080FDD0E81092E900BA
:1051F0008091F000877F8093F00078940E941E29B0
:105200001092E9008091F00088608093F000CD2B2F
:10521000CF70C093E900FF91EF91DF91CF91BF91E3
:10522000AF919F918F917F916F915F914F913F913E
:105230002F910F900FBE0F901F9018951F93CF9333
:10524000DF93CDB7DEB7AA970FB6F894DEBF0FBED7
:10525000CDBFE2EEF1E08091F100819321E0EA3EE2
:10526000F207C9F70E946C248091E80083FF2EC1E9
:105270008091E2019091E301492F50E04A305105BD
:1052800008F024C1FA01E556FF4F0C94B92A803882
:1052900021F0823809F01AC108C08091DE01909196
:1052A000DF01992389F082600FC08091E6018F7041
:1052B000873008F00BC18093E9008091EB0085FBFB
:1052C000882780F91092E9009091E800977F9093E9
:1052D000E8008093F1001092F100D1C0282F2D7FBB
:1052E00009F0F4C0882319F0823061F0EFC080919A
:1052F000E401813009F0EAC0933009F080E0809346
:10530000DF012EC08091E40181112AC08091E60165
:105310008F702FEF280F263008F0D8C08093E90057
:105320002091EB0020FF1CC0933021F48091EB0012
:10533000806214C09091EB0090619093EB0021E0AB
:1053400030E0A90102C0440F551F8A95E2F740934F
:10535000EA001092EA008091EB0088608093EB00F5
:105360001092E9008091E800877F8093E8000E9416
:105370003B27ACC08111AAC01091E4011F77809136
:10538000E3008078812B8093E3008091E800877FA1
:105390008093E8000E943B278091E80080FFFCCFCB
:1053A0008091E30080688093E300111102C082E0E5
:1053B00001C083E08093E10189C08058823008F009
:1053C00085C08091E4019091E5018C3D53E0950703
:1053D00079F583E08A838AE289834FB7F894DE0106
:1053E000139620E03EE051E2E32FF0E050935700A7
:1053F000E49120FF03C0E295EF703F5FEF708E2FC6
:1054000090E0EA3010F0C79601C0C0968D939D934E
:105410002F5F243149F74FBF8091E800877F809349
:10542000E8006AE270E0CE0101960E94472616C0AD
:105430006091E6017091E701AE014F5F5F4F0E94FE
:105440007025BC01892B09F441C09091E800977F39
:105450009093E80089819A810E94A5268091E800B6
:105460008B778093E80032C0803881F58091E80026
:10547000877F8093E8008091DD018093F100809127
:10548000E8008E7772CF811121C08091E401909164
:10549000E50199270297D4F48091E800877F8093F3
:1054A000E8008091E4018093DD010E943B27809118
:1054B000DD01811106C08091E30087FD02C081E01B
:1054C00001C084E08093E1010E945D248091E800A6
:1054D00083FF0AC08091E800877F8093E800809175
:1054E000EB0080628093EB00AA960FB6F894DEBFC3
:1054F0000FBECDBFDF91CF911F910895CF938091C3
:10550000E1018823A1F0C091E900CF709091EC00F7
:10551000892F817090FD80E8C82B1092E90080915E
:10552000E80083FD0E941E29CF70C093E900CF914F
:105530000895991B79E004C0991F961708F0961BEF
:10554000881F7A95C9F78095089597FB072E16F462
:10555000009407D077FD09D00E94BF2A07FC05D030
:105560003EF4909581959F4F0895709561957F4F7A
:105570000895EE0FFF1F0590F491E02D0994AA1BEA
:10558000BB1B51E107C0AA1FBB1FA617B70710F02E
:10559000A61BB70B881F991F5A95A9F78095909560
:1055A000BC01CD010895F999FECF92BD81BDF89A55
:1055B000992780B50895A8E1B0E042E050E00C944E
:1055C000072B262FF999FECF92BD81BDF89A01973E
:1055D00000B4021639F01FBA20BD0FB6F894FA9A3B
:1055E000F99A0FBE08950396272F0E94E22A0E947F
:1055F000E12A252F0E94E22A242F0C94E22A019608
:10560000272F0E94E22A0C94E12ADC01CB01FC0145
:10561000F999FECF06C0F2BDE1BDF89A319600B40B
:0E5620000D9241505040B8F70895F894FFCF16
:10562E00AE012808140A321EC022C223972361231A
:10563E00262301F6F73133946697C6000000FF016A
:10564E0000010000FFFF0000010001FF0001020346
:10565E0004050607080900408522AD0B280B060B32
:06566E00AB0AC40ADD0ACC
:00000001FF
